{
  "contractName": "Strategy",
  "abi": [
    {
      "inputs": [
        {
          "internalType": "address",
          "name": "_token",
          "type": "address"
        }
      ],
      "stateMutability": "nonpayable",
      "type": "constructor"
    },
    {
      "inputs": [],
      "name": "feepe18",
      "outputs": [
        {
          "internalType": "uint256",
          "name": "",
          "type": "uint256"
        }
      ],
      "stateMutability": "view",
      "type": "function"
    },
    {
      "inputs": [],
      "name": "feexe18",
      "outputs": [
        {
          "internalType": "uint256",
          "name": "",
          "type": "uint256"
        }
      ],
      "stateMutability": "view",
      "type": "function"
    },
    {
      "inputs": [],
      "name": "feeye18",
      "outputs": [
        {
          "internalType": "uint256",
          "name": "",
          "type": "uint256"
        }
      ],
      "stateMutability": "view",
      "type": "function"
    },
    {
      "inputs": [],
      "name": "governance",
      "outputs": [
        {
          "internalType": "address",
          "name": "",
          "type": "address"
        }
      ],
      "stateMutability": "view",
      "type": "function"
    },
    {
      "inputs": [],
      "name": "strategist",
      "outputs": [
        {
          "internalType": "address",
          "name": "",
          "type": "address"
        }
      ],
      "stateMutability": "view",
      "type": "function"
    },
    {
      "inputs": [],
      "name": "token",
      "outputs": [
        {
          "internalType": "address",
          "name": "",
          "type": "address"
        }
      ],
      "stateMutability": "view",
      "type": "function"
    },
    {
      "inputs": [],
      "name": "x",
      "outputs": [
        {
          "internalType": "address",
          "name": "",
          "type": "address"
        }
      ],
      "stateMutability": "view",
      "type": "function"
    },
    {
      "inputs": [],
      "name": "y",
      "outputs": [
        {
          "internalType": "address",
          "name": "",
          "type": "address"
        }
      ],
      "stateMutability": "view",
      "type": "function"
    },
    {
      "inputs": [
        {
          "internalType": "uint256",
          "name": "_ne18",
          "type": "uint256"
        }
      ],
      "name": "deposit",
      "outputs": [],
      "stateMutability": "nonpayable",
      "type": "function"
    },
    {
      "inputs": [],
      "name": "deposited",
      "outputs": [
        {
          "internalType": "uint256",
          "name": "",
          "type": "uint256"
        }
      ],
      "stateMutability": "view",
      "type": "function"
    },
    {
      "inputs": [
        {
          "internalType": "uint256",
          "name": "_ne18",
          "type": "uint256"
        }
      ],
      "name": "withdraw",
      "outputs": [],
      "stateMutability": "nonpayable",
      "type": "function"
    },
    {
      "inputs": [
        {
          "internalType": "address",
          "name": "_to",
          "type": "address"
        },
        {
          "internalType": "uint256",
          "name": "_amount",
          "type": "uint256"
        }
      ],
      "name": "withdraw",
      "outputs": [],
      "stateMutability": "nonpayable",
      "type": "function"
    },
    {
      "inputs": [],
      "name": "balanceOfY",
      "outputs": [
        {
          "internalType": "uint256",
          "name": "",
          "type": "uint256"
        }
      ],
      "stateMutability": "view",
      "type": "function"
    },
    {
      "inputs": [
        {
          "internalType": "address",
          "name": "_governance",
          "type": "address"
        }
      ],
      "name": "setGovernance",
      "outputs": [],
      "stateMutability": "nonpayable",
      "type": "function"
    },
    {
      "inputs": [
        {
          "internalType": "address",
          "name": "_strategist",
          "type": "address"
        }
      ],
      "name": "setStrategist",
      "outputs": [],
      "stateMutability": "nonpayable",
      "type": "function"
    },
    {
      "inputs": [
        {
          "internalType": "address",
          "name": "_strategy",
          "type": "address"
        }
      ],
      "name": "update",
      "outputs": [],
      "stateMutability": "nonpayable",
      "type": "function"
    },
    {
      "inputs": [
        {
          "internalType": "address",
          "name": "_x",
          "type": "address"
        }
      ],
      "name": "setX",
      "outputs": [],
      "stateMutability": "nonpayable",
      "type": "function"
    },
    {
      "inputs": [
        {
          "internalType": "address",
          "name": "_y",
          "type": "address"
        }
      ],
      "name": "setY",
      "outputs": [],
      "stateMutability": "nonpayable",
      "type": "function"
    },
    {
      "inputs": [
        {
          "internalType": "uint256",
          "name": "_fee",
          "type": "uint256"
        }
      ],
      "name": "setFeeXE18",
      "outputs": [],
      "stateMutability": "nonpayable",
      "type": "function"
    },
    {
      "inputs": [
        {
          "internalType": "uint256",
          "name": "_fee",
          "type": "uint256"
        }
      ],
      "name": "setFeeYE18",
      "outputs": [],
      "stateMutability": "nonpayable",
      "type": "function"
    },
    {
      "inputs": [
        {
          "internalType": "uint256",
          "name": "_fee",
          "type": "uint256"
        }
      ],
      "name": "setFeePE18",
      "outputs": [],
      "stateMutability": "nonpayable",
      "type": "function"
    },
    {
      "inputs": [
        {
          "internalType": "contract IERC20",
          "name": "_asset",
          "type": "address"
        },
        {
          "internalType": "uint256",
          "name": "_amount",
          "type": "uint256"
        }
      ],
      "name": "pika",
      "outputs": [],
      "stateMutability": "nonpayable",
      "type": "function"
    }
  ],
  "bytecode": "0x6080604052660aa87bee5380006005556611c37937e0800060065566b1a2bc2ec500006007553480156200003257600080fd5b506040516200251638038062002516833981810160405281019062000058919062000138565b33600160006101000a81548173ffffffffffffffffffffffffffffffffffffffff021916908373ffffffffffffffffffffffffffffffffffffffff16021790555033600260006101000a81548173ffffffffffffffffffffffffffffffffffffffff021916908373ffffffffffffffffffffffffffffffffffffffff160217905550806000806101000a81548173ffffffffffffffffffffffffffffffffffffffff021916908373ffffffffffffffffffffffffffffffffffffffff16021790555050620001b2565b600081519050620001328162000198565b92915050565b6000602082840312156200014b57600080fd5b60006200015b8482850162000121565b91505092915050565b6000620001718262000178565b9050919050565b600073ffffffffffffffffffffffffffffffffffffffff82169050919050565b620001a38162000164565b8114620001af57600080fd5b50565b61235480620001c26000396000f3fe608060405234801561001057600080fd5b50600436106101425760003560e01c8063a56dfe4a116100b8578063c7b9d5301161007c578063c7b9d53014610317578063ee51284e14610333578063eef49ee31461034f578063f3fef3a31461036d578063f5181e2c14610389578063fc0c546a146103a557610142565b8063a56dfe4a14610287578063ab033ea9146102a5578063ae93a528146102c1578063b6296835146102df578063b6b55f25146102fb57610142565b80633998973e1161010a5780633998973e146101d75780634a92c4d4146101f55780635978a654146102135780635aa6e6751461022f5780636178c1921461024d57806399f2daea1461026957610142565b806305fd6774146101475780630c55699c146101635780631c1b8772146101815780631fe4a6861461019d5780632e1a7d4d146101bb575b600080fd5b610161600480360381019061015c9190611ce1565b6103c3565b005b61016b61045d565b6040516101789190611f5e565b60405180910390f35b61019b60048036038101906101969190611bee565b610483565b005b6101a561073b565b6040516101b29190611f5e565b60405180910390f35b6101d560048036038101906101d09190611ce1565b610761565b005b6101df61084c565b6040516101ec9190612064565b60405180910390f35b6101fd610852565b60405161020a9190612064565b60405180910390f35b61022d60048036038101906102289190611bee565b610858565b005b610237610a37565b6040516102449190611f5e565b60405180910390f35b61026760048036038101906102629190611ca5565b610a5d565b005b610271610b3e565b60405161027e9190612064565b60405180910390f35b61028f610cb8565b60405161029c9190611f5e565b60405180910390f35b6102bf60048036038101906102ba9190611bee565b610cde565b005b6102c9610db2565b6040516102d69190612064565b60405180910390f35b6102f960048036038101906102f49190611ce1565b610db8565b005b61031560048036038101906103109190611ce1565b610e52565b005b610331600480360381019061032c9190611bee565b610f3d565b005b61034d60048036038101906103489190611bee565b611011565b005b6103576111f0565b6040516103649190612064565b60405180910390f35b61038760048036038101906103829190611c40565b6111f9565b005b6103a3600480360381019061039e9190611ce1565b61174e565b005b6103ad6117e8565b6040516103ba9190611f5e565b60405180910390f35b600160009054906101000a900473ffffffffffffffffffffffffffffffffffffffff1673ffffffffffffffffffffffffffffffffffffffff163373ffffffffffffffffffffffffffffffffffffffff1614610453576040517f08c379a000000000000000000000000000000000000000000000000000000000815260040161044a90611fc4565b60405180910390fd5b8060058190555050565b600360009054906101000a900473ffffffffffffffffffffffffffffffffffffffff1681565b600160009054906101000a900473ffffffffffffffffffffffffffffffffffffffff1673ffffffffffffffffffffffffffffffffffffffff163373ffffffffffffffffffffffffffffffffffffffff1614610513576040517f08c379a000000000000000000000000000000000000000000000000000000000815260040161050a90611fc4565b60405180910390fd5b610524670de0b6b3a7640000610761565b60008060009054906101000a900473ffffffffffffffffffffffffffffffffffffffff1673ffffffffffffffffffffffffffffffffffffffff166370a08231306040518263ffffffff1660e01b81526004016105809190611f5e565b60206040518083038186803b15801561059857600080fd5b505afa1580156105ac573d6000803e3d6000fd5b505050506040513d601f19601f820116820180604052508101906105d09190611d0a565b905061061d828260008054906101000a900473ffffffffffffffffffffffffffffffffffffffff1673ffffffffffffffffffffffffffffffffffffffff1661180c9092919063ffffffff16565b600360009054906101000a900473ffffffffffffffffffffffffffffffffffffffff1673ffffffffffffffffffffffffffffffffffffffff166333a100ca836040518263ffffffff1660e01b81526004016106789190611f5e565b600060405180830381600087803b15801561069257600080fd5b505af11580156106a6573d6000803e3d6000fd5b50505050600460009054906101000a900473ffffffffffffffffffffffffffffffffffffffff1673ffffffffffffffffffffffffffffffffffffffff166333a100ca836040518263ffffffff1660e01b81526004016107059190611f5e565b600060405180830381600087803b15801561071f57600080fd5b505af1158015610733573d6000803e3d6000fd5b505050505050565b600260009054906101000a900473ffffffffffffffffffffffffffffffffffffffff1681565b600160009054906101000a900473ffffffffffffffffffffffffffffffffffffffff1673ffffffffffffffffffffffffffffffffffffffff163373ffffffffffffffffffffffffffffffffffffffff16148061080a5750600260009054906101000a900473ffffffffffffffffffffffffffffffffffffffff1673ffffffffffffffffffffffffffffffffffffffff163373ffffffffffffffffffffffffffffffffffffffff16145b610849576040517f08c379a000000000000000000000000000000000000000000000000000000000815260040161084090611fc4565b60405180910390fd5b50565b60075481565b60065481565b600160009054906101000a900473ffffffffffffffffffffffffffffffffffffffff1673ffffffffffffffffffffffffffffffffffffffff163373ffffffffffffffffffffffffffffffffffffffff16146108e8576040517f08c379a00000000000000000000000000000000000000000000000000000000081526004016108df90611fc4565b60405180910390fd5b60008054906101000a900473ffffffffffffffffffffffffffffffffffffffff1673ffffffffffffffffffffffffffffffffffffffff168173ffffffffffffffffffffffffffffffffffffffff1663fc0c546a6040518163ffffffff1660e01b815260040160206040518083038186803b15801561096557600080fd5b505afa158015610979573d6000803e3d6000fd5b505050506040513d601f19601f8201168201806040525081019061099d9190611c17565b73ffffffffffffffffffffffffffffffffffffffff16146109f3576040517f08c379a00000000000000000000000000000000000000000000000000000000081526004016109ea90612004565b60405180910390fd5b80600360006101000a81548173ffffffffffffffffffffffffffffffffffffffff021916908373ffffffffffffffffffffffffffffffffffffffff16021790555050565b600160009054906101000a900473ffffffffffffffffffffffffffffffffffffffff1681565b600160009054906101000a900473ffffffffffffffffffffffffffffffffffffffff1673ffffffffffffffffffffffffffffffffffffffff163373ffffffffffffffffffffffffffffffffffffffff1614610aed576040517f08c379a0000000000000000000000000000000000000000000000000000000008152600401610ae490611fc4565b60405180910390fd5b610b3a600160009054906101000a900473ffffffffffffffffffffffffffffffffffffffff16828473ffffffffffffffffffffffffffffffffffffffff1661180c9092919063ffffffff16565b5050565b6000610cb3610b4b6111f0565b610ca5600360009054906101000a900473ffffffffffffffffffffffffffffffffffffffff1673ffffffffffffffffffffffffffffffffffffffff166318160ddd6040518163ffffffff1660e01b815260040160206040518083038186803b158015610bb657600080fd5b505afa158015610bca573d6000803e3d6000fd5b505050506040513d601f19601f82011682018060405250810190610bee9190611d0a565b60008054906101000a900473ffffffffffffffffffffffffffffffffffffffff1673ffffffffffffffffffffffffffffffffffffffff166370a08231306040518263ffffffff1660e01b8152600401610c479190611f5e565b60206040518083038186803b158015610c5f57600080fd5b505afa158015610c73573d6000803e3d6000fd5b505050506040513d601f19601f82011682018060405250810190610c979190611d0a565b61189290919063ffffffff16565b6118a890919063ffffffff16565b905090565b600460009054906101000a900473ffffffffffffffffffffffffffffffffffffffff1681565b600160009054906101000a900473ffffffffffffffffffffffffffffffffffffffff1673ffffffffffffffffffffffffffffffffffffffff163373ffffffffffffffffffffffffffffffffffffffff1614610d6e576040517f08c379a0000000000000000000000000000000000000000000000000000000008152600401610d6590611fc4565b60405180910390fd5b80600160006101000a81548173ffffffffffffffffffffffffffffffffffffffff021916908373ffffffffffffffffffffffffffffffffffffffff16021790555050565b60055481565b600160009054906101000a900473ffffffffffffffffffffffffffffffffffffffff1673ffffffffffffffffffffffffffffffffffffffff163373ffffffffffffffffffffffffffffffffffffffff1614610e48576040517f08c379a0000000000000000000000000000000000000000000000000000000008152600401610e3f90611fc4565b60405180910390fd5b8060078190555050565b600160009054906101000a900473ffffffffffffffffffffffffffffffffffffffff1673ffffffffffffffffffffffffffffffffffffffff163373ffffffffffffffffffffffffffffffffffffffff161480610efb5750600260009054906101000a900473ffffffffffffffffffffffffffffffffffffffff1673ffffffffffffffffffffffffffffffffffffffff163373ffffffffffffffffffffffffffffffffffffffff16145b610f3a576040517f08c379a0000000000000000000000000000000000000000000000000000000008152600401610f3190611fc4565b60405180910390fd5b50565b600160009054906101000a900473ffffffffffffffffffffffffffffffffffffffff1673ffffffffffffffffffffffffffffffffffffffff163373ffffffffffffffffffffffffffffffffffffffff1614610fcd576040517f08c379a0000000000000000000000000000000000000000000000000000000008152600401610fc490611fc4565b60405180910390fd5b80600260006101000a81548173ffffffffffffffffffffffffffffffffffffffff021916908373ffffffffffffffffffffffffffffffffffffffff16021790555050565b600160009054906101000a900473ffffffffffffffffffffffffffffffffffffffff1673ffffffffffffffffffffffffffffffffffffffff163373ffffffffffffffffffffffffffffffffffffffff16146110a1576040517f08c379a000000000000000000000000000000000000000000000000000000000815260040161109890611fc4565b60405180910390fd5b60008054906101000a900473ffffffffffffffffffffffffffffffffffffffff1673ffffffffffffffffffffffffffffffffffffffff168173ffffffffffffffffffffffffffffffffffffffff1663fc0c546a6040518163ffffffff1660e01b815260040160206040518083038186803b15801561111e57600080fd5b505afa158015611132573d6000803e3d6000fd5b505050506040513d601f19601f820116820180604052508101906111569190611c17565b73ffffffffffffffffffffffffffffffffffffffff16146111ac576040517f08c379a00000000000000000000000000000000000000000000000000000000081526004016111a390612004565b60405180910390fd5b80600460006101000a81548173ffffffffffffffffffffffffffffffffffffffff021916908373ffffffffffffffffffffffffffffffffffffffff16021790555050565b60006001905090565b600360009054906101000a900473ffffffffffffffffffffffffffffffffffffffff1673ffffffffffffffffffffffffffffffffffffffff163373ffffffffffffffffffffffffffffffffffffffff1614806112a25750600460009054906101000a900473ffffffffffffffffffffffffffffffffffffffff1673ffffffffffffffffffffffffffffffffffffffff163373ffffffffffffffffffffffffffffffffffffffff16145b6112e1576040517f08c379a00000000000000000000000000000000000000000000000000000000081526004016112d890612004565b60405180910390fd5b60008060009054906101000a900473ffffffffffffffffffffffffffffffffffffffff1673ffffffffffffffffffffffffffffffffffffffff166370a08231306040518263ffffffff1660e01b815260040161133d9190611f5e565b60206040518083038186803b15801561135557600080fd5b505afa158015611369573d6000803e3d6000fd5b505050506040513d601f19601f8201168201806040525081019061138d9190611d0a565b90508181101561149a576113e56113e06113a56111f0565b6113d2670de0b6b3a76400006113c4868861189290919063ffffffff16565b6118be90919063ffffffff16565b6118d490919063ffffffff16565b610761565b61149760008054906101000a900473ffffffffffffffffffffffffffffffffffffffff1673ffffffffffffffffffffffffffffffffffffffff166370a08231306040518263ffffffff1660e01b81526004016114419190611f5e565b60206040518083038186803b15801561145957600080fd5b505afa15801561146d573d6000803e3d6000fd5b505050506040513d601f19601f820116820180604052508101906114919190611d0a565b836118ea565b91505b600360009054906101000a900473ffffffffffffffffffffffffffffffffffffffff1673ffffffffffffffffffffffffffffffffffffffff163373ffffffffffffffffffffffffffffffffffffffff1614156115f3576000611521670de0b6b3a7640000611513600554866118be90919063ffffffff16565b6118d490919063ffffffff16565b9050611590600160009054906101000a900473ffffffffffffffffffffffffffffffffffffffff168260008054906101000a900473ffffffffffffffffffffffffffffffffffffffff1673ffffffffffffffffffffffffffffffffffffffff1661180c9092919063ffffffff16565b6115ed846115a7838661189290919063ffffffff16565b60008054906101000a900473ffffffffffffffffffffffffffffffffffffffff1673ffffffffffffffffffffffffffffffffffffffff1661180c9092919063ffffffff16565b50611749565b600460009054906101000a900473ffffffffffffffffffffffffffffffffffffffff1673ffffffffffffffffffffffffffffffffffffffff163373ffffffffffffffffffffffffffffffffffffffff16141561174857600061167a670de0b6b3a764000061166c600654866118be90919063ffffffff16565b6118d490919063ffffffff16565b90506116e9600160009054906101000a900473ffffffffffffffffffffffffffffffffffffffff168260008054906101000a900473ffffffffffffffffffffffffffffffffffffffff1673ffffffffffffffffffffffffffffffffffffffff1661180c9092919063ffffffff16565b61174684611700838661189290919063ffffffff16565b60008054906101000a900473ffffffffffffffffffffffffffffffffffffffff1673ffffffffffffffffffffffffffffffffffffffff1661180c9092919063ffffffff16565b505b5b505050565b600160009054906101000a900473ffffffffffffffffffffffffffffffffffffffff1673ffffffffffffffffffffffffffffffffffffffff163373ffffffffffffffffffffffffffffffffffffffff16146117de576040517f08c379a00000000000000000000000000000000000000000000000000000000081526004016117d590611fc4565b60405180910390fd5b8060068190555050565b60008054906101000a900473ffffffffffffffffffffffffffffffffffffffff1681565b61188d8363a9059cbb60e01b848460405160240161182b929190611f79565b604051602081830303815290604052907bffffffffffffffffffffffffffffffffffffffffffffffffffffffff19166020820180517bffffffffffffffffffffffffffffffffffffffffffffffffffffffff8381831617835250505050611903565b505050565b600081836118a09190612192565b905092915050565b600081836118b691906120b1565b905092915050565b600081836118cc9190612138565b905092915050565b600081836118e29190612107565b905092915050565b60008183106118f957816118fb565b825b905092915050565b6000611965826040518060400160405280602081526020017f5361666545524332303a206c6f772d6c6576656c2063616c6c206661696c65648152508573ffffffffffffffffffffffffffffffffffffffff166119ca9092919063ffffffff16565b90506000815111156119c557808060200190518101906119859190611c7c565b6119c4576040517f08c379a00000000000000000000000000000000000000000000000000000000081526004016119bb90612044565b60405180910390fd5b5b505050565b60606119d984846000856119e2565b90509392505050565b606082471015611a27576040517f08c379a0000000000000000000000000000000000000000000000000000000008152600401611a1e90611fe4565b60405180910390fd5b611a3085611af6565b611a6f576040517f08c379a0000000000000000000000000000000000000000000000000000000008152600401611a6690612024565b60405180910390fd5b6000808673ffffffffffffffffffffffffffffffffffffffff168587604051611a989190611f47565b60006040518083038185875af1925050503d8060008114611ad5576040519150601f19603f3d011682016040523d82523d6000602084013e611ada565b606091505b5091509150611aea828286611b09565b92505050949350505050565b600080823b905060008111915050919050565b60608315611b1957829050611b69565b600083511115611b2c5782518084602001fd5b816040517f08c379a0000000000000000000000000000000000000000000000000000000008152600401611b609190611fa2565b60405180910390fd5b9392505050565b600081359050611b7f816122c2565b92915050565b600081519050611b94816122c2565b92915050565b600081519050611ba9816122d9565b92915050565b600081359050611bbe816122f0565b92915050565b600081359050611bd381612307565b92915050565b600081519050611be881612307565b92915050565b600060208284031215611c0057600080fd5b6000611c0e84828501611b70565b91505092915050565b600060208284031215611c2957600080fd5b6000611c3784828501611b85565b91505092915050565b60008060408385031215611c5357600080fd5b6000611c6185828601611b70565b9250506020611c7285828601611bc4565b9150509250929050565b600060208284031215611c8e57600080fd5b6000611c9c84828501611b9a565b91505092915050565b60008060408385031215611cb857600080fd5b6000611cc685828601611baf565b9250506020611cd785828601611bc4565b9150509250929050565b600060208284031215611cf357600080fd5b6000611d0184828501611bc4565b91505092915050565b600060208284031215611d1c57600080fd5b6000611d2a84828501611bd9565b91505092915050565b611d3c816121c6565b82525050565b6000611d4d8261207f565b611d578185612095565b9350611d67818560208601612220565b80840191505092915050565b6000611d7e8261208a565b611d8881856120a0565b9350611d98818560208601612220565b611da1816122b1565b840191505092915050565b6000611db96005836120a0565b91507f217065726d0000000000000000000000000000000000000000000000000000006000830152602082019050919050565b6000611df96026836120a0565b91507f416464726573733a20696e73756666696369656e742062616c616e636520666f60008301527f722063616c6c00000000000000000000000000000000000000000000000000006020830152604082019050919050565b6000611e5f6006836120a0565b91507f217661756c7400000000000000000000000000000000000000000000000000006000830152602082019050919050565b6000611e9f601d836120a0565b91507f416464726573733a2063616c6c20746f206e6f6e2d636f6e74726163740000006000830152602082019050919050565b6000611edf602a836120a0565b91507f5361666545524332303a204552433230206f7065726174696f6e20646964206e60008301527f6f742073756363656564000000000000000000000000000000000000000000006020830152604082019050919050565b611f4181612216565b82525050565b6000611f538284611d42565b915081905092915050565b6000602082019050611f736000830184611d33565b92915050565b6000604082019050611f8e6000830185611d33565b611f9b6020830184611f38565b9392505050565b60006020820190508181036000830152611fbc8184611d73565b905092915050565b60006020820190508181036000830152611fdd81611dac565b9050919050565b60006020820190508181036000830152611ffd81611dec565b9050919050565b6000602082019050818103600083015261201d81611e52565b9050919050565b6000602082019050818103600083015261203d81611e92565b9050919050565b6000602082019050818103600083015261205d81611ed2565b9050919050565b60006020820190506120796000830184611f38565b92915050565b600081519050919050565b600081519050919050565b600081905092915050565b600082825260208201905092915050565b60006120bc82612216565b91506120c783612216565b9250827fffffffffffffffffffffffffffffffffffffffffffffffffffffffffffffffff038211156120fc576120fb612253565b5b828201905092915050565b600061211282612216565b915061211d83612216565b92508261212d5761212c612282565b5b828204905092915050565b600061214382612216565b915061214e83612216565b9250817fffffffffffffffffffffffffffffffffffffffffffffffffffffffffffffffff048311821515161561218757612186612253565b5b828202905092915050565b600061219d82612216565b91506121a883612216565b9250828210156121bb576121ba612253565b5b828203905092915050565b60006121d1826121f6565b9050919050565b60008115159050919050565b60006121ef826121c6565b9050919050565b600073ffffffffffffffffffffffffffffffffffffffff82169050919050565b6000819050919050565b60005b8381101561223e578082015181840152602081019050612223565b8381111561224d576000848401525b50505050565b7f4e487b7100000000000000000000000000000000000000000000000000000000600052601160045260246000fd5b7f4e487b7100000000000000000000000000000000000000000000000000000000600052601260045260246000fd5b6000601f19601f8301169050919050565b6122cb816121c6565b81146122d657600080fd5b50565b6122e2816121d8565b81146122ed57600080fd5b50565b6122f9816121e4565b811461230457600080fd5b50565b61231081612216565b811461231b57600080fd5b5056fea264697066735822122021655fef50c2520eb717945c9df0b03f1000885f75fcdae449253dce1b2cf64d64736f6c63430008000033",
  "immutableReferences": {},
  "source": "// SPDX-License-Identifier: MIT\n\npragma solidity ^0.8.0;\n\nimport \"./Math.sol\";\nimport \"./SafeMath.sol\";\nimport \"./IERC20.sol\";\nimport \"./Address.sol\";\nimport \"./SafeERC20.sol\";\n\ninterface Vault {\n    function token() external view returns (address);\n    function setStrategy(address _strategy) external;\n}\n\ncontract Strategy {\n    using SafeERC20 for IERC20;\n    using Address for address;\n    using SafeMath for uint256;\n\n    address public token;\n    address public governance;\n    address public strategist;\n    address public x;\n    address public y;\n\n    uint256 public feexe18 = 3e15;\n    uint256 public feeye18 = 5e15;\n    uint256 public feepe18 = 5e16;\n\n    constructor(address _token) {\n        governance = msg.sender;\n        strategist = msg.sender;\n        token = _token;\n    }\n    \n    modifier pGOV {\n      require(msg.sender == governance, \"!perm\");\n      _;\n    }\n    \n    modifier pSTR {\n      require(msg.sender == governance || msg.sender == strategist, \"!perm\");\n      _;\n    }\n    \n    modifier pVAL {\n      require(msg.sender == x || msg.sender == y, \"!vault\");\n      _;\n    }\n    \n    function deposit(uint256 _ne18) public virtual pSTR {\n    }\n\n    function withdraw(uint256 _ne18) public virtual pSTR {\n    }\n    \n    function deposited() public view virtual returns(uint256) {\n        return 1;\n    }\n\n    function withdraw(address _to, uint256 _amount) public pVAL {\n        uint256 _balance = IERC20(token).balanceOf(address(this));\n        if (_balance < _amount) {\n            withdraw(_amount.sub(_balance).mul(1e18).div(deposited()));\n            _amount = Math.min(IERC20(token).balanceOf(address(this)), _amount);\n        }\n        if (msg.sender == x) {\n            uint256 _fee = _amount.mul(feexe18).div(1e18);\n            IERC20(token).safeTransfer(governance, _fee);\n            IERC20(token).safeTransfer(_to, _amount.sub(_fee));\n        }\n        else if (msg.sender == y) {\n            uint256 _fee = _amount.mul(feeye18).div(1e18);\n            IERC20(token).safeTransfer(governance, _fee);\n            IERC20(token).safeTransfer(_to, _amount.sub(_fee));\n        }\n    }\n\n    function balanceOfY() public view returns (uint256) {\n        return IERC20(token).balanceOf(address(this)).sub(IERC20(x).totalSupply()).add(deposited());\n    }\n\n    function setGovernance(address _governance) public pGOV {\n        governance = _governance;\n    }\n    \n    function setStrategist(address _strategist) public pGOV {\n        strategist = _strategist;\n    }\n    \n    function update(address _strategy) public pGOV {\n        withdraw(1e18);\n        uint256 _balance = IERC20(token).balanceOf(address(this));\n        IERC20(token).safeTransfer(_strategy, _balance);\n        Vault(x).setStrategy(_strategy);\n        Vault(y).setStrategy(_strategy);\n    }\n\n    function setX(address _x) public pGOV {\n        require(Vault(_x).token() == token, \"!vault\");\n        x = _x;\n    }\n\n    function setY(address _y) public pGOV {\n        require(Vault(_y).token() == token, \"!vault\");\n        y = _y;\n    }\n\n    function setFeeXE18(uint256 _fee) public pGOV {\n        feexe18 = _fee;\n    }\n\n    function setFeeYE18(uint256 _fee) public pGOV {\n        feeye18 = _fee;\n    }\n\n    function setFeePE18(uint256 _fee) public pGOV {\n        feepe18 = _fee;\n    }\n    \n    function pika(IERC20 _asset, uint256 _amount) public pGOV {\n        _asset.safeTransfer(governance, _amount);\n    }\n}",
  "sourcePath": "/Users/lu/Desktop/flamincome/truffle/contracts/Strategy.sol",
  "compiler": {
    "name": "solc",
    "version": "0.8.0+commit.c7dfd78e.Emscripten.clang"
  },
  "schemaVersion": "3.2.3",
  "updatedAt": "2021-03-15T12:08:41.365Z",
  "devdoc": {
    "kind": "dev",
    "methods": {},
    "version": 1
  },
  "userdoc": {
    "kind": "user",
    "methods": {},
    "version": 1
  }
}