{
  "contractName": "VaultY",
  "abi": [
    {
      "inputs": [
        {
          "internalType": "address",
          "name": "_token",
          "type": "address"
        },
        {
          "internalType": "address",
          "name": "_strategy",
          "type": "address"
        }
      ],
      "stateMutability": "nonpayable",
      "type": "constructor"
    },
    {
      "anonymous": false,
      "inputs": [
        {
          "indexed": true,
          "internalType": "address",
          "name": "owner",
          "type": "address"
        },
        {
          "indexed": true,
          "internalType": "address",
          "name": "spender",
          "type": "address"
        },
        {
          "indexed": false,
          "internalType": "uint256",
          "name": "value",
          "type": "uint256"
        }
      ],
      "name": "Approval",
      "type": "event"
    },
    {
      "anonymous": false,
      "inputs": [
        {
          "indexed": true,
          "internalType": "address",
          "name": "from",
          "type": "address"
        },
        {
          "indexed": true,
          "internalType": "address",
          "name": "to",
          "type": "address"
        },
        {
          "indexed": false,
          "internalType": "uint256",
          "name": "value",
          "type": "uint256"
        }
      ],
      "name": "Transfer",
      "type": "event"
    },
    {
      "inputs": [
        {
          "internalType": "address",
          "name": "owner",
          "type": "address"
        },
        {
          "internalType": "address",
          "name": "spender",
          "type": "address"
        }
      ],
      "name": "allowance",
      "outputs": [
        {
          "internalType": "uint256",
          "name": "",
          "type": "uint256"
        }
      ],
      "stateMutability": "view",
      "type": "function"
    },
    {
      "inputs": [
        {
          "internalType": "address",
          "name": "spender",
          "type": "address"
        },
        {
          "internalType": "uint256",
          "name": "amount",
          "type": "uint256"
        }
      ],
      "name": "approve",
      "outputs": [
        {
          "internalType": "bool",
          "name": "",
          "type": "bool"
        }
      ],
      "stateMutability": "nonpayable",
      "type": "function"
    },
    {
      "inputs": [
        {
          "internalType": "address",
          "name": "account",
          "type": "address"
        }
      ],
      "name": "balanceOf",
      "outputs": [
        {
          "internalType": "uint256",
          "name": "",
          "type": "uint256"
        }
      ],
      "stateMutability": "view",
      "type": "function"
    },
    {
      "inputs": [],
      "name": "decimals",
      "outputs": [
        {
          "internalType": "uint8",
          "name": "",
          "type": "uint8"
        }
      ],
      "stateMutability": "view",
      "type": "function"
    },
    {
      "inputs": [
        {
          "internalType": "address",
          "name": "spender",
          "type": "address"
        },
        {
          "internalType": "uint256",
          "name": "subtractedValue",
          "type": "uint256"
        }
      ],
      "name": "decreaseAllowance",
      "outputs": [
        {
          "internalType": "bool",
          "name": "",
          "type": "bool"
        }
      ],
      "stateMutability": "nonpayable",
      "type": "function"
    },
    {
      "inputs": [],
      "name": "governance",
      "outputs": [
        {
          "internalType": "address",
          "name": "",
          "type": "address"
        }
      ],
      "stateMutability": "view",
      "type": "function"
    },
    {
      "inputs": [
        {
          "internalType": "address",
          "name": "spender",
          "type": "address"
        },
        {
          "internalType": "uint256",
          "name": "addedValue",
          "type": "uint256"
        }
      ],
      "name": "increaseAllowance",
      "outputs": [
        {
          "internalType": "bool",
          "name": "",
          "type": "bool"
        }
      ],
      "stateMutability": "nonpayable",
      "type": "function"
    },
    {
      "inputs": [],
      "name": "name",
      "outputs": [
        {
          "internalType": "string",
          "name": "",
          "type": "string"
        }
      ],
      "stateMutability": "view",
      "type": "function"
    },
    {
      "inputs": [],
      "name": "strategy",
      "outputs": [
        {
          "internalType": "address",
          "name": "",
          "type": "address"
        }
      ],
      "stateMutability": "view",
      "type": "function"
    },
    {
      "inputs": [],
      "name": "symbol",
      "outputs": [
        {
          "internalType": "string",
          "name": "",
          "type": "string"
        }
      ],
      "stateMutability": "view",
      "type": "function"
    },
    {
      "inputs": [],
      "name": "token",
      "outputs": [
        {
          "internalType": "contract IERC20",
          "name": "",
          "type": "address"
        }
      ],
      "stateMutability": "view",
      "type": "function"
    },
    {
      "inputs": [],
      "name": "totalSupply",
      "outputs": [
        {
          "internalType": "uint256",
          "name": "",
          "type": "uint256"
        }
      ],
      "stateMutability": "view",
      "type": "function"
    },
    {
      "inputs": [
        {
          "internalType": "address",
          "name": "recipient",
          "type": "address"
        },
        {
          "internalType": "uint256",
          "name": "amount",
          "type": "uint256"
        }
      ],
      "name": "transfer",
      "outputs": [
        {
          "internalType": "bool",
          "name": "",
          "type": "bool"
        }
      ],
      "stateMutability": "nonpayable",
      "type": "function"
    },
    {
      "inputs": [
        {
          "internalType": "address",
          "name": "sender",
          "type": "address"
        },
        {
          "internalType": "address",
          "name": "recipient",
          "type": "address"
        },
        {
          "internalType": "uint256",
          "name": "amount",
          "type": "uint256"
        }
      ],
      "name": "transferFrom",
      "outputs": [
        {
          "internalType": "bool",
          "name": "",
          "type": "bool"
        }
      ],
      "stateMutability": "nonpayable",
      "type": "function"
    },
    {
      "inputs": [],
      "name": "balance",
      "outputs": [
        {
          "internalType": "uint256",
          "name": "",
          "type": "uint256"
        }
      ],
      "stateMutability": "view",
      "type": "function"
    },
    {
      "inputs": [
        {
          "internalType": "address",
          "name": "_governance",
          "type": "address"
        }
      ],
      "name": "setGovernance",
      "outputs": [],
      "stateMutability": "nonpayable",
      "type": "function"
    },
    {
      "inputs": [
        {
          "internalType": "address",
          "name": "_strategy",
          "type": "address"
        }
      ],
      "name": "setStrategy",
      "outputs": [],
      "stateMutability": "nonpayable",
      "type": "function"
    },
    {
      "inputs": [],
      "name": "depositAll",
      "outputs": [],
      "stateMutability": "nonpayable",
      "type": "function"
    },
    {
      "inputs": [
        {
          "internalType": "uint256",
          "name": "_amount",
          "type": "uint256"
        }
      ],
      "name": "deposit",
      "outputs": [],
      "stateMutability": "nonpayable",
      "type": "function"
    },
    {
      "inputs": [],
      "name": "withdrawAll",
      "outputs": [],
      "stateMutability": "nonpayable",
      "type": "function"
    },
    {
      "inputs": [
        {
          "internalType": "uint256",
          "name": "_shares",
          "type": "uint256"
        }
      ],
      "name": "withdraw",
      "outputs": [],
      "stateMutability": "nonpayable",
      "type": "function"
    },
    {
      "inputs": [],
      "name": "priceE18",
      "outputs": [
        {
          "internalType": "uint256",
          "name": "",
          "type": "uint256"
        }
      ],
      "stateMutability": "view",
      "type": "function"
    },
    {
      "inputs": [
        {
          "internalType": "address",
          "name": "_token",
          "type": "address"
        },
        {
          "internalType": "uint256",
          "name": "_amount",
          "type": "uint256"
        }
      ],
      "name": "pika",
      "outputs": [],
      "stateMutability": "nonpayable",
      "type": "function"
    }
  ],
  "bytecode": "0x60806040523480156200001157600080fd5b50604051620030c6380380620030c68339818101604052810190620000379190620004a2565b8173ffffffffffffffffffffffffffffffffffffffff166306fdde036040518163ffffffff1660e01b815260040160006040518083038186803b1580156200007e57600080fd5b505afa15801562000093573d6000803e3d6000fd5b505050506040513d6000823e3d601f19601f82011682018060405250810190620000be9190620004e3565b604051602001620000d091906200060f565b6040516020818303038152906040528273ffffffffffffffffffffffffffffffffffffffff166395d89b416040518163ffffffff1660e01b815260040160006040518083038186803b1580156200012657600080fd5b505afa1580156200013b573d6000803e3d6000fd5b505050506040513d6000823e3d601f19601f82011682018060405250810190620001669190620004e3565b60405160200162000178919062000635565b60405160208183030381529060405281600390805190602001906200019f92919062000352565b508060049080519060200190620001b892919062000352565b506012600560006101000a81548160ff021916908360ff1602179055505050620002698273ffffffffffffffffffffffffffffffffffffffff1663313ce5676040518163ffffffff1660e01b815260040160206040518083038186803b1580156200022257600080fd5b505afa15801562000237573d6000803e3d6000fd5b505050506040513d601f19601f820116820180604052508101906200025d919062000528565b6200033460201b60201c565b81600560016101000a81548173ffffffffffffffffffffffffffffffffffffffff021916908373ffffffffffffffffffffffffffffffffffffffff16021790555033600660006101000a81548173ffffffffffffffffffffffffffffffffffffffff021916908373ffffffffffffffffffffffffffffffffffffffff16021790555080600760006101000a81548173ffffffffffffffffffffffffffffffffffffffff021916908373ffffffffffffffffffffffffffffffffffffffff160217905550505062000817565b80600560006101000a81548160ff021916908360ff16021790555050565b82805462000360906200074f565b90600052602060002090601f016020900481019282620003845760008555620003d0565b82601f106200039f57805160ff1916838001178555620003d0565b82800160010185558215620003d0579182015b82811115620003cf578251825591602001919060010190620003b2565b5b509050620003df9190620003e3565b5090565b5b80821115620003fe576000816000905550600101620003e4565b5090565b60006200041962000413846200068f565b6200065b565b9050828152602081018484840111156200043257600080fd5b6200043f84828562000719565b509392505050565b6000815190506200045881620007e3565b92915050565b600082601f8301126200047057600080fd5b81516200048284826020860162000402565b91505092915050565b6000815190506200049c81620007fd565b92915050565b60008060408385031215620004b657600080fd5b6000620004c68582860162000447565b9250506020620004d98582860162000447565b9150509250929050565b600060208284031215620004f657600080fd5b600082015167ffffffffffffffff8111156200051157600080fd5b6200051f848285016200045e565b91505092915050565b6000602082840312156200053b57600080fd5b60006200054b848285016200048b565b91505092915050565b60006200056182620006c2565b6200056d8185620006cd565b93506200057f81856020860162000719565b80840191505092915050565b60006200059a601183620006cd565b91507f5949454c4420464c414d494e434f4d45200000000000000000000000000000006000830152601182019050919050565b6000620005dc600183620006cd565b91507f59000000000000000000000000000000000000000000000000000000000000006000830152600182019050919050565b60006200061c826200058b565b91506200062a828462000554565b915081905092915050565b60006200064282620005cd565b915062000650828462000554565b915081905092915050565b6000604051905081810181811067ffffffffffffffff82111715620006855762000684620007b4565b5b8060405250919050565b600067ffffffffffffffff821115620006ad57620006ac620007b4565b5b601f19601f8301169050602081019050919050565b600081519050919050565b600081905092915050565b6000620006e582620006ec565b9050919050565b600073ffffffffffffffffffffffffffffffffffffffff82169050919050565b600060ff82169050919050565b60005b83811015620007395780820151818401526020810190506200071c565b8381111562000749576000848401525b50505050565b600060028204905060018216806200076857607f821691505b602082108114156200077f576200077e62000785565b5b50919050565b7f4e487b7100000000000000000000000000000000000000000000000000000000600052602260045260246000fd5b7f4e487b7100000000000000000000000000000000000000000000000000000000600052604160045260246000fd5b620007ee81620006d8565b8114620007fa57600080fd5b50565b62000808816200070c565b81146200081457600080fd5b50565b61289f80620008276000396000f3fe608060405234801561001057600080fd5b506004361061014d5760003560e01c806370a08231116100c3578063ab033ea91161007c578063ab033ea9146103a2578063b69ef8a8146103be578063b6b55f25146103dc578063dd62ed3e146103f8578063de5f626814610428578063fc0c546a146104325761014d565b806370a08231146102cc578063853828b6146102fc57806395d89b4114610306578063a457c2d714610324578063a8c62e7614610354578063a9059cbb146103725761014d565b8063313ce56711610115578063313ce5671461020a57806333a100ca1461022857806339509351146102445780633a06703c146102745780635aa6e675146102925780636178c192146102b05761014d565b806306fdde0314610152578063095ea7b31461017057806318160ddd146101a057806323b872dd146101be5780632e1a7d4d146101ee575b600080fd5b61015a610450565b6040516101679190612334565b60405180910390f35b61018a60048036038101906101859190611d76565b6104e2565b60405161019791906122fe565b60405180910390f35b6101a8610500565b6040516101b59190612496565b60405180910390f35b6101d860048036038101906101d39190611d27565b61050a565b6040516101e591906122fe565b60405180910390f35b61020860048036038101906102039190611ddb565b6105e3565b005b6102126106b7565b60405161021f91906124b1565b60405180910390f35b610242600480360381019061023d9190611cc2565b6106ce565b005b61025e60048036038101906102599190611d76565b6107fa565b60405161026b91906122fe565b60405180910390f35b61027c6108ad565b6040516102899190612496565b60405180910390f35b61029a6108ef565b6040516102a79190612283565b60405180910390f35b6102ca60048036038101906102c59190611d76565b610915565b005b6102e660048036038101906102e19190611cc2565b6109f6565b6040516102f39190612496565b60405180910390f35b610304610a3e565b005b61030e610a51565b60405161031b9190612334565b60405180910390f35b61033e60048036038101906103399190611d76565b610ae3565b60405161034b91906122fe565b60405180910390f35b61035c610bb0565b6040516103699190612283565b60405180910390f35b61038c60048036038101906103879190611d76565b610bd6565b60405161039991906122fe565b60405180910390f35b6103bc60048036038101906103b79190611cc2565b610bf4565b005b6103c6610cc8565b6040516103d39190612496565b60405180910390f35b6103f660048036038101906103f19190611ddb565b610d6f565b005b610412600480360381019061040d9190611ceb565b610f34565b60405161041f9190612496565b60405180910390f35b610430610fbb565b005b61043a611070565b6040516104479190612319565b60405180910390f35b60606003805461045f906126bf565b80601f016020809104026020016040519081016040528092919081815260200182805461048b906126bf565b80156104d85780601f106104ad576101008083540402835291602001916104d8565b820191906000526020600020905b8154815290600101906020018083116104bb57829003601f168201915b5050505050905090565b60006104f66104ef611096565b848461109e565b6001905092915050565b6000600254905090565b6000610517848484611269565b6105d884610523611096565b6105d38560405180606001604052806028815260200161281d60289139600160008b73ffffffffffffffffffffffffffffffffffffffff1673ffffffffffffffffffffffffffffffffffffffff1681526020019081526020016000206000610589611096565b73ffffffffffffffffffffffffffffffffffffffff1673ffffffffffffffffffffffffffffffffffffffff168152602001908152602001600020546114fe9092919063ffffffff16565b61109e565b600190509392505050565b60006106186105f0610500565b61060a846105fc610cc8565b61155390919063ffffffff16565b61156990919063ffffffff16565b9050610624338361157f565b600760009054906101000a900473ffffffffffffffffffffffffffffffffffffffff1673ffffffffffffffffffffffffffffffffffffffff1663f3fef3a333836040518363ffffffff1660e01b81526004016106819291906122d5565b600060405180830381600087803b15801561069b57600080fd5b505af11580156106af573d6000803e3d6000fd5b505050505050565b6000600560009054906101000a900460ff16905090565b600660009054906101000a900473ffffffffffffffffffffffffffffffffffffffff1673ffffffffffffffffffffffffffffffffffffffff163373ffffffffffffffffffffffffffffffffffffffff1614806107775750600760009054906101000a900473ffffffffffffffffffffffffffffffffffffffff1673ffffffffffffffffffffffffffffffffffffffff163373ffffffffffffffffffffffffffffffffffffffff16145b6107b6576040517f08c379a00000000000000000000000000000000000000000000000000000000081526004016107ad90612376565b60405180910390fd5b80600760006101000a81548173ffffffffffffffffffffffffffffffffffffffff021916908373ffffffffffffffffffffffffffffffffffffffff16021790555050565b60006108a3610807611096565b8461089e8560016000610818611096565b73ffffffffffffffffffffffffffffffffffffffff1673ffffffffffffffffffffffffffffffffffffffff16815260200190815260200160002060008973ffffffffffffffffffffffffffffffffffffffff1673ffffffffffffffffffffffffffffffffffffffff1681526020019081526020016000205461172d90919063ffffffff16565b61109e565b6001905092915050565b60006108ea6108ba610500565b6108dc670de0b6b3a76400006108ce610cc8565b61155390919063ffffffff16565b61156990919063ffffffff16565b905090565b600660009054906101000a900473ffffffffffffffffffffffffffffffffffffffff1681565b600660009054906101000a900473ffffffffffffffffffffffffffffffffffffffff1673ffffffffffffffffffffffffffffffffffffffff163373ffffffffffffffffffffffffffffffffffffffff16146109a5576040517f08c379a000000000000000000000000000000000000000000000000000000000815260040161099c90612376565b60405180910390fd5b6109f2600660009054906101000a900473ffffffffffffffffffffffffffffffffffffffff16828473ffffffffffffffffffffffffffffffffffffffff166117439092919063ffffffff16565b5050565b60008060008373ffffffffffffffffffffffffffffffffffffffff1673ffffffffffffffffffffffffffffffffffffffff168152602001908152602001600020549050919050565b610a4f610a4a336109f6565b6105e3565b565b606060048054610a60906126bf565b80601f0160208091040260200160405190810160405280929190818152602001828054610a8c906126bf565b8015610ad95780601f10610aae57610100808354040283529160200191610ad9565b820191906000526020600020905b815481529060010190602001808311610abc57829003601f168201915b5050505050905090565b6000610ba6610af0611096565b84610ba1856040518060600160405280602581526020016128456025913960016000610b1a611096565b73ffffffffffffffffffffffffffffffffffffffff1673ffffffffffffffffffffffffffffffffffffffff16815260200190815260200160002060008a73ffffffffffffffffffffffffffffffffffffffff1673ffffffffffffffffffffffffffffffffffffffff168152602001908152602001600020546114fe9092919063ffffffff16565b61109e565b6001905092915050565b600760009054906101000a900473ffffffffffffffffffffffffffffffffffffffff1681565b6000610bea610be3611096565b8484611269565b6001905092915050565b600660009054906101000a900473ffffffffffffffffffffffffffffffffffffffff1673ffffffffffffffffffffffffffffffffffffffff163373ffffffffffffffffffffffffffffffffffffffff1614610c84576040517f08c379a0000000000000000000000000000000000000000000000000000000008152600401610c7b90612376565b60405180910390fd5b80600660006101000a81548173ffffffffffffffffffffffffffffffffffffffff021916908373ffffffffffffffffffffffffffffffffffffffff16021790555050565b6000600760009054906101000a900473ffffffffffffffffffffffffffffffffffffffff1673ffffffffffffffffffffffffffffffffffffffff166399f2daea6040518163ffffffff1660e01b815260040160206040518083038186803b158015610d3257600080fd5b505afa158015610d46573d6000803e3d6000fd5b505050506040513d601f19601f82011682018060405250810190610d6a9190611e04565b905090565b610dbe333083600560019054906101000a900473ffffffffffffffffffffffffffffffffffffffff1673ffffffffffffffffffffffffffffffffffffffff166117c9909392919063ffffffff16565b600080610dc9610500565b1415610dd757819050610e0d565b610e0a610de2610cc8565b610dfc610ded610500565b8561155390919063ffffffff16565b61156990919063ffffffff16565b90505b610e173382611852565b610f30600760009054906101000a900473ffffffffffffffffffffffffffffffffffffffff16600560019054906101000a900473ffffffffffffffffffffffffffffffffffffffff1673ffffffffffffffffffffffffffffffffffffffff166370a08231306040518263ffffffff1660e01b8152600401610e989190612283565b60206040518083038186803b158015610eb057600080fd5b505afa158015610ec4573d6000803e3d6000fd5b505050506040513d601f19601f82011682018060405250810190610ee89190611e04565b600560019054906101000a900473ffffffffffffffffffffffffffffffffffffffff1673ffffffffffffffffffffffffffffffffffffffff166117439092919063ffffffff16565b5050565b6000600160008473ffffffffffffffffffffffffffffffffffffffff1673ffffffffffffffffffffffffffffffffffffffff16815260200190815260200160002060008373ffffffffffffffffffffffffffffffffffffffff1673ffffffffffffffffffffffffffffffffffffffff16815260200190815260200160002054905092915050565b61106e600560019054906101000a900473ffffffffffffffffffffffffffffffffffffffff1673ffffffffffffffffffffffffffffffffffffffff166370a08231336040518263ffffffff1660e01b81526004016110199190612283565b60206040518083038186803b15801561103157600080fd5b505afa158015611045573d6000803e3d6000fd5b505050506040513d601f19601f820116820180604052508101906110699190611e04565b610d6f565b565b600560019054906101000a900473ffffffffffffffffffffffffffffffffffffffff1681565b600033905090565b600073ffffffffffffffffffffffffffffffffffffffff168373ffffffffffffffffffffffffffffffffffffffff16141561110e576040517f08c379a000000000000000000000000000000000000000000000000000000000815260040161110590612416565b60405180910390fd5b600073ffffffffffffffffffffffffffffffffffffffff168273ffffffffffffffffffffffffffffffffffffffff16141561117e576040517f08c379a000000000000000000000000000000000000000000000000000000000815260040161117590612396565b60405180910390fd5b80600160008573ffffffffffffffffffffffffffffffffffffffff1673ffffffffffffffffffffffffffffffffffffffff16815260200190815260200160002060008473ffffffffffffffffffffffffffffffffffffffff1673ffffffffffffffffffffffffffffffffffffffff168152602001908152602001600020819055508173ffffffffffffffffffffffffffffffffffffffff168373ffffffffffffffffffffffffffffffffffffffff167f8c5be1e5ebec7d5bd14f71427d1e84f3dd0314c0f7b2291e5b200ac8c7c3b9258360405161125c9190612496565b60405180910390a3505050565b600073ffffffffffffffffffffffffffffffffffffffff168373ffffffffffffffffffffffffffffffffffffffff1614156112d9576040517f08c379a00000000000000000000000000000000000000000000000000000000081526004016112d0906123f6565b60405180910390fd5b600073ffffffffffffffffffffffffffffffffffffffff168273ffffffffffffffffffffffffffffffffffffffff161415611349576040517f08c379a000000000000000000000000000000000000000000000000000000000815260040161134090612356565b60405180910390fd5b6113548383836119e6565b6113bf816040518060600160405280602681526020016127f7602691396000808773ffffffffffffffffffffffffffffffffffffffff1673ffffffffffffffffffffffffffffffffffffffff168152602001908152602001600020546114fe9092919063ffffffff16565b6000808573ffffffffffffffffffffffffffffffffffffffff1673ffffffffffffffffffffffffffffffffffffffff16815260200190815260200160002081905550611452816000808573ffffffffffffffffffffffffffffffffffffffff1673ffffffffffffffffffffffffffffffffffffffff1681526020019081526020016000205461172d90919063ffffffff16565b6000808473ffffffffffffffffffffffffffffffffffffffff1673ffffffffffffffffffffffffffffffffffffffff168152602001908152602001600020819055508173ffffffffffffffffffffffffffffffffffffffff168373ffffffffffffffffffffffffffffffffffffffff167fddf252ad1be2c89b69c2b068fc378daa952ba7f163c4a11628f55a4df523b3ef836040516114f19190612496565b60405180910390a3505050565b6000838311158290611546576040517f08c379a000000000000000000000000000000000000000000000000000000000815260040161153d9190612334565b60405180910390fd5b5082840390509392505050565b600081836115619190612585565b905092915050565b600081836115779190612554565b905092915050565b600073ffffffffffffffffffffffffffffffffffffffff168273ffffffffffffffffffffffffffffffffffffffff1614156115ef576040517f08c379a00000000000000000000000000000000000000000000000000000000081526004016115e6906123d6565b60405180910390fd5b6115fb826000836119e6565b611666816040518060600160405280602281526020016127d5602291396000808673ffffffffffffffffffffffffffffffffffffffff1673ffffffffffffffffffffffffffffffffffffffff168152602001908152602001600020546114fe9092919063ffffffff16565b6000808473ffffffffffffffffffffffffffffffffffffffff1673ffffffffffffffffffffffffffffffffffffffff168152602001908152602001600020819055506116bd816002546119eb90919063ffffffff16565b600281905550600073ffffffffffffffffffffffffffffffffffffffff168273ffffffffffffffffffffffffffffffffffffffff167fddf252ad1be2c89b69c2b068fc378daa952ba7f163c4a11628f55a4df523b3ef836040516117219190612496565b60405180910390a35050565b6000818361173b91906124fe565b905092915050565b6117c48363a9059cbb60e01b84846040516024016117629291906122d5565b604051602081830303815290604052907bffffffffffffffffffffffffffffffffffffffffffffffffffffffff19166020820180517bffffffffffffffffffffffffffffffffffffffffffffffffffffffff8381831617835250505050611a01565b505050565b61184c846323b872dd60e01b8585856040516024016117ea9392919061229e565b604051602081830303815290604052907bffffffffffffffffffffffffffffffffffffffffffffffffffffffff19166020820180517bffffffffffffffffffffffffffffffffffffffffffffffffffffffff8381831617835250505050611a01565b50505050565b600073ffffffffffffffffffffffffffffffffffffffff168273ffffffffffffffffffffffffffffffffffffffff1614156118c2576040517f08c379a00000000000000000000000000000000000000000000000000000000081526004016118b990612476565b60405180910390fd5b6118ce600083836119e6565b6118e38160025461172d90919063ffffffff16565b60028190555061193a816000808573ffffffffffffffffffffffffffffffffffffffff1673ffffffffffffffffffffffffffffffffffffffff1681526020019081526020016000205461172d90919063ffffffff16565b6000808473ffffffffffffffffffffffffffffffffffffffff1673ffffffffffffffffffffffffffffffffffffffff168152602001908152602001600020819055508173ffffffffffffffffffffffffffffffffffffffff16600073ffffffffffffffffffffffffffffffffffffffff167fddf252ad1be2c89b69c2b068fc378daa952ba7f163c4a11628f55a4df523b3ef836040516119da9190612496565b60405180910390a35050565b505050565b600081836119f991906125df565b905092915050565b6000611a63826040518060400160405280602081526020017f5361666545524332303a206c6f772d6c6576656c2063616c6c206661696c65648152508573ffffffffffffffffffffffffffffffffffffffff16611ac89092919063ffffffff16565b9050600081511115611ac35780806020019051810190611a839190611db2565b611ac2576040517f08c379a0000000000000000000000000000000000000000000000000000000008152600401611ab990612456565b60405180910390fd5b5b505050565b6060611ad78484600085611ae0565b90509392505050565b606082471015611b25576040517f08c379a0000000000000000000000000000000000000000000000000000000008152600401611b1c906123b6565b60405180910390fd5b611b2e85611bf4565b611b6d576040517f08c379a0000000000000000000000000000000000000000000000000000000008152600401611b6490612436565b60405180910390fd5b6000808673ffffffffffffffffffffffffffffffffffffffff168587604051611b96919061226c565b60006040518083038185875af1925050503d8060008114611bd3576040519150601f19603f3d011682016040523d82523d6000602084013e611bd8565b606091505b5091509150611be8828286611c07565b92505050949350505050565b600080823b905060008111915050919050565b60608315611c1757829050611c67565b600083511115611c2a5782518084602001fd5b816040517f08c379a0000000000000000000000000000000000000000000000000000000008152600401611c5e9190612334565b60405180910390fd5b9392505050565b600081359050611c7d8161278f565b92915050565b600081519050611c92816127a6565b92915050565b600081359050611ca7816127bd565b92915050565b600081519050611cbc816127bd565b92915050565b600060208284031215611cd457600080fd5b6000611ce284828501611c6e565b91505092915050565b60008060408385031215611cfe57600080fd5b6000611d0c85828601611c6e565b9250506020611d1d85828601611c6e565b9150509250929050565b600080600060608486031215611d3c57600080fd5b6000611d4a86828701611c6e565b9350506020611d5b86828701611c6e565b9250506040611d6c86828701611c98565b9150509250925092565b60008060408385031215611d8957600080fd5b6000611d9785828601611c6e565b9250506020611da885828601611c98565b9150509250929050565b600060208284031215611dc457600080fd5b6000611dd284828501611c83565b91505092915050565b600060208284031215611ded57600080fd5b6000611dfb84828501611c98565b91505092915050565b600060208284031215611e1657600080fd5b6000611e2484828501611cad565b91505092915050565b611e3681612613565b82525050565b611e4581612625565b82525050565b6000611e56826124cc565b611e6081856124e2565b9350611e7081856020860161268c565b80840191505092915050565b611e8581612668565b82525050565b6000611e96826124d7565b611ea081856124ed565b9350611eb081856020860161268c565b611eb98161277e565b840191505092915050565b6000611ed16023836124ed565b91507f45524332303a207472616e7366657220746f20746865207a65726f206164647260008301527f65737300000000000000000000000000000000000000000000000000000000006020830152604082019050919050565b6000611f37600b836124ed565b91507f21676f7665726e616e63650000000000000000000000000000000000000000006000830152602082019050919050565b6000611f776022836124ed565b91507f45524332303a20617070726f766520746f20746865207a65726f20616464726560008301527f73730000000000000000000000000000000000000000000000000000000000006020830152604082019050919050565b6000611fdd6026836124ed565b91507f416464726573733a20696e73756666696369656e742062616c616e636520666f60008301527f722063616c6c00000000000000000000000000000000000000000000000000006020830152604082019050919050565b60006120436021836124ed565b91507f45524332303a206275726e2066726f6d20746865207a65726f2061646472657360008301527f73000000000000000000000000000000000000000000000000000000000000006020830152604082019050919050565b60006120a96025836124ed565b91507f45524332303a207472616e736665722066726f6d20746865207a65726f20616460008301527f64726573730000000000000000000000000000000000000000000000000000006020830152604082019050919050565b600061210f6024836124ed565b91507f45524332303a20617070726f76652066726f6d20746865207a65726f2061646460008301527f72657373000000000000000000000000000000000000000000000000000000006020830152604082019050919050565b6000612175601d836124ed565b91507f416464726573733a2063616c6c20746f206e6f6e2d636f6e74726163740000006000830152602082019050919050565b60006121b5602a836124ed565b91507f5361666545524332303a204552433230206f7065726174696f6e20646964206e60008301527f6f742073756363656564000000000000000000000000000000000000000000006020830152604082019050919050565b600061221b601f836124ed565b91507f45524332303a206d696e7420746f20746865207a65726f2061646472657373006000830152602082019050919050565b61225781612651565b82525050565b6122668161265b565b82525050565b60006122788284611e4b565b915081905092915050565b60006020820190506122986000830184611e2d565b92915050565b60006060820190506122b36000830186611e2d565b6122c06020830185611e2d565b6122cd604083018461224e565b949350505050565b60006040820190506122ea6000830185611e2d565b6122f7602083018461224e565b9392505050565b60006020820190506123136000830184611e3c565b92915050565b600060208201905061232e6000830184611e7c565b92915050565b6000602082019050818103600083015261234e8184611e8b565b905092915050565b6000602082019050818103600083015261236f81611ec4565b9050919050565b6000602082019050818103600083015261238f81611f2a565b9050919050565b600060208201905081810360008301526123af81611f6a565b9050919050565b600060208201905081810360008301526123cf81611fd0565b9050919050565b600060208201905081810360008301526123ef81612036565b9050919050565b6000602082019050818103600083015261240f8161209c565b9050919050565b6000602082019050818103600083015261242f81612102565b9050919050565b6000602082019050818103600083015261244f81612168565b9050919050565b6000602082019050818103600083015261246f816121a8565b9050919050565b6000602082019050818103600083015261248f8161220e565b9050919050565b60006020820190506124ab600083018461224e565b92915050565b60006020820190506124c6600083018461225d565b92915050565b600081519050919050565b600081519050919050565b600081905092915050565b600082825260208201905092915050565b600061250982612651565b915061251483612651565b9250827fffffffffffffffffffffffffffffffffffffffffffffffffffffffffffffffff03821115612549576125486126f1565b5b828201905092915050565b600061255f82612651565b915061256a83612651565b92508261257a57612579612720565b5b828204905092915050565b600061259082612651565b915061259b83612651565b9250817fffffffffffffffffffffffffffffffffffffffffffffffffffffffffffffffff04831182151516156125d4576125d36126f1565b5b828202905092915050565b60006125ea82612651565b91506125f583612651565b925082821015612608576126076126f1565b5b828203905092915050565b600061261e82612631565b9050919050565b60008115159050919050565b600073ffffffffffffffffffffffffffffffffffffffff82169050919050565b6000819050919050565b600060ff82169050919050565b60006126738261267a565b9050919050565b600061268582612631565b9050919050565b60005b838110156126aa57808201518184015260208101905061268f565b838111156126b9576000848401525b50505050565b600060028204905060018216806126d757607f821691505b602082108114156126eb576126ea61274f565b5b50919050565b7f4e487b7100000000000000000000000000000000000000000000000000000000600052601160045260246000fd5b7f4e487b7100000000000000000000000000000000000000000000000000000000600052601260045260246000fd5b7f4e487b7100000000000000000000000000000000000000000000000000000000600052602260045260246000fd5b6000601f19601f8301169050919050565b61279881612613565b81146127a357600080fd5b50565b6127af81612625565b81146127ba57600080fd5b50565b6127c681612651565b81146127d157600080fd5b5056fe45524332303a206275726e20616d6f756e7420657863656564732062616c616e636545524332303a207472616e7366657220616d6f756e7420657863656564732062616c616e636545524332303a207472616e7366657220616d6f756e74206578636565647320616c6c6f77616e636545524332303a2064656372656173656420616c6c6f77616e63652062656c6f77207a65726fa2646970667358221220692f06f48f5f2a1dde9fe9e186df1dd7217eca3cad285625d78104eb80d5e96864736f6c63430008000033",
  "immutableReferences": {},
  "source": "// SPDX-License-Identifier: MIT\npragma solidity ^0.8.0;\n\nimport \"./IERC20.sol\";\nimport \"./SafeMath.sol\";\nimport \"./Address.sol\";\nimport \"./SafeERC20.sol\";\nimport \"./ERC20.sol\";\nimport \"./Context.sol\";\nimport \"./Strategy.sol\";\n\ncontract VaultY is ERC20 {\n    using SafeERC20 for IERC20;\n    using Address for address;\n    using SafeMath for uint256;\n\n    IERC20 public token;\n\n    address public governance;\n    address public strategy;\n\n    constructor (address _token, address _strategy) public ERC20(\n        string(abi.encodePacked(\"YIELD FLAMINCOME \", ERC20(_token).name())),\n        string(abi.encodePacked(\"Y\", ERC20(_token).symbol()))\n    ) {\n        _setupDecimals(ERC20(_token).decimals());\n        token = IERC20(_token);\n        governance = msg.sender;\n        strategy = _strategy;\n    }\n\n    function balance() public view returns (uint) {\n        return Strategy(strategy).balanceOfY();\n    }\n\n    function setGovernance(address _governance) public {\n        require(msg.sender == governance, \"!governance\");\n        governance = _governance;\n    }\n\n    function setStrategy(address _strategy) public {\n        require(msg.sender == governance || msg.sender == strategy, \"!governance\");\n        strategy = _strategy;\n    }\n\n    function depositAll() public {\n        deposit(token.balanceOf(msg.sender));\n    }\n\n    function deposit(uint _amount) public {\n        token.safeTransferFrom(msg.sender, address(this), _amount);\n        uint shares = 0;\n        if (totalSupply() == 0) {\n            shares = _amount;\n        } else {\n            shares = (_amount.mul(totalSupply())).div(balance());\n        }\n        _mint(msg.sender, shares);\n        token.safeTransfer(strategy, token.balanceOf(address(this))); // earn\n    }\n\n    function withdrawAll() public {\n        withdraw(balanceOf(msg.sender));\n    }\n\n    function withdraw(uint _shares) public {\n        uint r = (balance().mul(_shares)).div(totalSupply());\n        _burn(msg.sender, _shares);\n        Strategy(strategy).withdraw(msg.sender, r);\n    }\n\n    function priceE18() public view returns (uint) {\n        return balance().mul(1e18).div(totalSupply());\n    }\n\n    function pika(address _token, uint _amount) public {\n        require(msg.sender == governance, \"!governance\");\n        IERC20(_token).safeTransfer(governance, _amount);\n    }\n}\n",
  "sourcePath": "/Users/lu/Desktop/flamincome/truffle/contracts/VaultY.sol",
  "compiler": {
    "name": "solc",
    "version": "0.8.0+commit.c7dfd78e.Emscripten.clang"
  },
  "schemaVersion": "3.2.3",
  "updatedAt": "2021-03-15T12:08:41.374Z",
  "devdoc": {
    "kind": "dev",
    "methods": {
      "allowance(address,address)": {
        "details": "See {IERC20-allowance}."
      },
      "approve(address,uint256)": {
        "details": "See {IERC20-approve}. Requirements: - `spender` cannot be the zero address."
      },
      "balanceOf(address)": {
        "details": "See {IERC20-balanceOf}."
      },
      "decimals()": {
        "details": "Returns the number of decimals used to get its user representation. For example, if `decimals` equals `2`, a balance of `505` tokens should be displayed to a user as `5,05` (`505 / 10 ** 2`). Tokens usually opt for a value of 18, imitating the relationship between Ether and Wei. This is the value {ERC20} uses, unless {_setupDecimals} is called. NOTE: This information is only used for _display_ purposes: it in no way affects any of the arithmetic of the contract, including {IERC20-balanceOf} and {IERC20-transfer}."
      },
      "decreaseAllowance(address,uint256)": {
        "details": "Atomically decreases the allowance granted to `spender` by the caller. This is an alternative to {approve} that can be used as a mitigation for problems described in {IERC20-approve}. Emits an {Approval} event indicating the updated allowance. Requirements: - `spender` cannot be the zero address. - `spender` must have allowance for the caller of at least `subtractedValue`."
      },
      "increaseAllowance(address,uint256)": {
        "details": "Atomically increases the allowance granted to `spender` by the caller. This is an alternative to {approve} that can be used as a mitigation for problems described in {IERC20-approve}. Emits an {Approval} event indicating the updated allowance. Requirements: - `spender` cannot be the zero address."
      },
      "name()": {
        "details": "Returns the name of the token."
      },
      "symbol()": {
        "details": "Returns the symbol of the token, usually a shorter version of the name."
      },
      "totalSupply()": {
        "details": "See {IERC20-totalSupply}."
      },
      "transfer(address,uint256)": {
        "details": "See {IERC20-transfer}. Requirements: - `recipient` cannot be the zero address. - the caller must have a balance of at least `amount`."
      },
      "transferFrom(address,address,uint256)": {
        "details": "See {IERC20-transferFrom}. Emits an {Approval} event indicating the updated allowance. This is not required by the EIP. See the note at the beginning of {ERC20}. Requirements: - `sender` and `recipient` cannot be the zero address. - `sender` must have a balance of at least `amount`. - the caller must have allowance for ``sender``'s tokens of at least `amount`."
      }
    },
    "version": 1
  },
  "userdoc": {
    "kind": "user",
    "methods": {},
    "version": 1
  }
}