{
  "contractName": "VaultX",
  "abi": [
    {
      "inputs": [
        {
          "internalType": "address",
          "name": "_token",
          "type": "address"
        },
        {
          "internalType": "address",
          "name": "_strategy",
          "type": "address"
        }
      ],
      "stateMutability": "nonpayable",
      "type": "constructor"
    },
    {
      "anonymous": false,
      "inputs": [
        {
          "indexed": true,
          "internalType": "address",
          "name": "owner",
          "type": "address"
        },
        {
          "indexed": true,
          "internalType": "address",
          "name": "spender",
          "type": "address"
        },
        {
          "indexed": false,
          "internalType": "uint256",
          "name": "value",
          "type": "uint256"
        }
      ],
      "name": "Approval",
      "type": "event"
    },
    {
      "anonymous": false,
      "inputs": [
        {
          "indexed": true,
          "internalType": "address",
          "name": "from",
          "type": "address"
        },
        {
          "indexed": true,
          "internalType": "address",
          "name": "to",
          "type": "address"
        },
        {
          "indexed": false,
          "internalType": "uint256",
          "name": "value",
          "type": "uint256"
        }
      ],
      "name": "Transfer",
      "type": "event"
    },
    {
      "inputs": [
        {
          "internalType": "address",
          "name": "owner",
          "type": "address"
        },
        {
          "internalType": "address",
          "name": "spender",
          "type": "address"
        }
      ],
      "name": "allowance",
      "outputs": [
        {
          "internalType": "uint256",
          "name": "",
          "type": "uint256"
        }
      ],
      "stateMutability": "view",
      "type": "function"
    },
    {
      "inputs": [
        {
          "internalType": "address",
          "name": "spender",
          "type": "address"
        },
        {
          "internalType": "uint256",
          "name": "amount",
          "type": "uint256"
        }
      ],
      "name": "approve",
      "outputs": [
        {
          "internalType": "bool",
          "name": "",
          "type": "bool"
        }
      ],
      "stateMutability": "nonpayable",
      "type": "function"
    },
    {
      "inputs": [
        {
          "internalType": "address",
          "name": "account",
          "type": "address"
        }
      ],
      "name": "balanceOf",
      "outputs": [
        {
          "internalType": "uint256",
          "name": "",
          "type": "uint256"
        }
      ],
      "stateMutability": "view",
      "type": "function"
    },
    {
      "inputs": [],
      "name": "decimals",
      "outputs": [
        {
          "internalType": "uint8",
          "name": "",
          "type": "uint8"
        }
      ],
      "stateMutability": "view",
      "type": "function"
    },
    {
      "inputs": [
        {
          "internalType": "address",
          "name": "spender",
          "type": "address"
        },
        {
          "internalType": "uint256",
          "name": "subtractedValue",
          "type": "uint256"
        }
      ],
      "name": "decreaseAllowance",
      "outputs": [
        {
          "internalType": "bool",
          "name": "",
          "type": "bool"
        }
      ],
      "stateMutability": "nonpayable",
      "type": "function"
    },
    {
      "inputs": [],
      "name": "governance",
      "outputs": [
        {
          "internalType": "address",
          "name": "",
          "type": "address"
        }
      ],
      "stateMutability": "view",
      "type": "function"
    },
    {
      "inputs": [
        {
          "internalType": "address",
          "name": "spender",
          "type": "address"
        },
        {
          "internalType": "uint256",
          "name": "addedValue",
          "type": "uint256"
        }
      ],
      "name": "increaseAllowance",
      "outputs": [
        {
          "internalType": "bool",
          "name": "",
          "type": "bool"
        }
      ],
      "stateMutability": "nonpayable",
      "type": "function"
    },
    {
      "inputs": [],
      "name": "name",
      "outputs": [
        {
          "internalType": "string",
          "name": "",
          "type": "string"
        }
      ],
      "stateMutability": "view",
      "type": "function"
    },
    {
      "inputs": [],
      "name": "strategy",
      "outputs": [
        {
          "internalType": "address",
          "name": "",
          "type": "address"
        }
      ],
      "stateMutability": "view",
      "type": "function"
    },
    {
      "inputs": [],
      "name": "symbol",
      "outputs": [
        {
          "internalType": "string",
          "name": "",
          "type": "string"
        }
      ],
      "stateMutability": "view",
      "type": "function"
    },
    {
      "inputs": [],
      "name": "token",
      "outputs": [
        {
          "internalType": "contract IERC20",
          "name": "",
          "type": "address"
        }
      ],
      "stateMutability": "view",
      "type": "function"
    },
    {
      "inputs": [],
      "name": "totalSupply",
      "outputs": [
        {
          "internalType": "uint256",
          "name": "",
          "type": "uint256"
        }
      ],
      "stateMutability": "view",
      "type": "function"
    },
    {
      "inputs": [
        {
          "internalType": "address",
          "name": "recipient",
          "type": "address"
        },
        {
          "internalType": "uint256",
          "name": "amount",
          "type": "uint256"
        }
      ],
      "name": "transfer",
      "outputs": [
        {
          "internalType": "bool",
          "name": "",
          "type": "bool"
        }
      ],
      "stateMutability": "nonpayable",
      "type": "function"
    },
    {
      "inputs": [
        {
          "internalType": "address",
          "name": "sender",
          "type": "address"
        },
        {
          "internalType": "address",
          "name": "recipient",
          "type": "address"
        },
        {
          "internalType": "uint256",
          "name": "amount",
          "type": "uint256"
        }
      ],
      "name": "transferFrom",
      "outputs": [
        {
          "internalType": "bool",
          "name": "",
          "type": "bool"
        }
      ],
      "stateMutability": "nonpayable",
      "type": "function"
    },
    {
      "inputs": [
        {
          "internalType": "address",
          "name": "_governance",
          "type": "address"
        }
      ],
      "name": "setGovernance",
      "outputs": [],
      "stateMutability": "nonpayable",
      "type": "function"
    },
    {
      "inputs": [
        {
          "internalType": "address",
          "name": "_strategy",
          "type": "address"
        }
      ],
      "name": "setStrategy",
      "outputs": [],
      "stateMutability": "nonpayable",
      "type": "function"
    },
    {
      "inputs": [],
      "name": "depositAll",
      "outputs": [],
      "stateMutability": "nonpayable",
      "type": "function"
    },
    {
      "inputs": [
        {
          "internalType": "uint256",
          "name": "_amount",
          "type": "uint256"
        }
      ],
      "name": "deposit",
      "outputs": [],
      "stateMutability": "nonpayable",
      "type": "function"
    },
    {
      "inputs": [],
      "name": "withdrawAll",
      "outputs": [],
      "stateMutability": "nonpayable",
      "type": "function"
    },
    {
      "inputs": [
        {
          "internalType": "uint256",
          "name": "_shares",
          "type": "uint256"
        }
      ],
      "name": "withdraw",
      "outputs": [],
      "stateMutability": "nonpayable",
      "type": "function"
    },
    {
      "inputs": [
        {
          "internalType": "address",
          "name": "_token",
          "type": "address"
        },
        {
          "internalType": "uint256",
          "name": "_amount",
          "type": "uint256"
        }
      ],
      "name": "pika",
      "outputs": [],
      "stateMutability": "nonpayable",
      "type": "function"
    }
  ],
  "bytecode": "0x60806040523480156200001157600080fd5b5060405162002e1d38038062002e1d8339818101604052810190620000379190620004a2565b8173ffffffffffffffffffffffffffffffffffffffff166306fdde036040518163ffffffff1660e01b815260040160006040518083038186803b1580156200007e57600080fd5b505afa15801562000093573d6000803e3d6000fd5b505050506040513d6000823e3d601f19601f82011682018060405250810190620000be9190620004e3565b604051602001620000d0919062000635565b6040516020818303038152906040528273ffffffffffffffffffffffffffffffffffffffff166395d89b416040518163ffffffff1660e01b815260040160006040518083038186803b1580156200012657600080fd5b505afa1580156200013b573d6000803e3d6000fd5b505050506040513d6000823e3d601f19601f82011682018060405250810190620001669190620004e3565b6040516020016200017891906200060f565b60405160208183030381529060405281600390805190602001906200019f92919062000352565b508060049080519060200190620001b892919062000352565b506012600560006101000a81548160ff021916908360ff1602179055505050620002698273ffffffffffffffffffffffffffffffffffffffff1663313ce5676040518163ffffffff1660e01b815260040160206040518083038186803b1580156200022257600080fd5b505afa15801562000237573d6000803e3d6000fd5b505050506040513d601f19601f820116820180604052508101906200025d919062000528565b6200033460201b60201c565b81600560016101000a81548173ffffffffffffffffffffffffffffffffffffffff021916908373ffffffffffffffffffffffffffffffffffffffff16021790555033600660006101000a81548173ffffffffffffffffffffffffffffffffffffffff021916908373ffffffffffffffffffffffffffffffffffffffff16021790555080600760006101000a81548173ffffffffffffffffffffffffffffffffffffffff021916908373ffffffffffffffffffffffffffffffffffffffff160217905550505062000817565b80600560006101000a81548160ff021916908360ff16021790555050565b82805462000360906200074f565b90600052602060002090601f016020900481019282620003845760008555620003d0565b82601f106200039f57805160ff1916838001178555620003d0565b82800160010185558215620003d0579182015b82811115620003cf578251825591602001919060010190620003b2565b5b509050620003df9190620003e3565b5090565b5b80821115620003fe576000816000905550600101620003e4565b5090565b60006200041962000413846200068f565b6200065b565b9050828152602081018484840111156200043257600080fd5b6200043f84828562000719565b509392505050565b6000815190506200045881620007e3565b92915050565b600082601f8301126200047057600080fd5b81516200048284826020860162000402565b91505092915050565b6000815190506200049c81620007fd565b92915050565b60008060408385031215620004b657600080fd5b6000620004c68582860162000447565b9250506020620004d98582860162000447565b9150509250929050565b600060208284031215620004f657600080fd5b600082015167ffffffffffffffff8111156200051157600080fd5b6200051f848285016200045e565b91505092915050565b6000602082840312156200053b57600080fd5b60006200054b848285016200048b565b91505092915050565b60006200056182620006c2565b6200056d8185620006cd565b93506200057f81856020860162000719565b80840191505092915050565b60006200059a600183620006cd565b91507f58000000000000000000000000000000000000000000000000000000000000006000830152600182019050919050565b6000620005dc601183620006cd565b91507f43524f535320464c414d494e434f4d45200000000000000000000000000000006000830152601182019050919050565b60006200061c826200058b565b91506200062a828462000554565b915081905092915050565b60006200064282620005cd565b915062000650828462000554565b915081905092915050565b6000604051905081810181811067ffffffffffffffff82111715620006855762000684620007b4565b5b8060405250919050565b600067ffffffffffffffff821115620006ad57620006ac620007b4565b5b601f19601f8301169050602081019050919050565b600081519050919050565b600081905092915050565b6000620006e582620006ec565b9050919050565b600073ffffffffffffffffffffffffffffffffffffffff82169050919050565b600060ff82169050919050565b60005b83811015620007395780820151818401526020810190506200071c565b8381111562000749576000848401525b50505050565b600060028204905060018216806200076857607f821691505b602082108114156200077f576200077e62000785565b5b50919050565b7f4e487b7100000000000000000000000000000000000000000000000000000000600052602260045260246000fd5b7f4e487b7100000000000000000000000000000000000000000000000000000000600052604160045260246000fd5b620007ee81620006d8565b8114620007fa57600080fd5b50565b62000808816200070c565b81146200081457600080fd5b50565b6125f680620008276000396000f3fe608060405234801561001057600080fd5b50600436106101375760003560e01c806370a08231116100b8578063a9059cbb1161007c578063a9059cbb1461033e578063ab033ea91461036e578063b6b55f251461038a578063dd62ed3e146103a6578063de5f6268146103d6578063fc0c546a146103e057610137565b806370a0823114610298578063853828b6146102c857806395d89b41146102d2578063a457c2d7146102f0578063a8c62e761461032057610137565b8063313ce567116100ff578063313ce567146101f457806333a100ca14610212578063395093511461022e5780635aa6e6751461025e5780636178c1921461027c57610137565b806306fdde031461013c578063095ea7b31461015a57806318160ddd1461018a57806323b872dd146101a85780632e1a7d4d146101d8575b600080fd5b6101446103fe565b6040516101519190612145565b60405180910390f35b610174600480360381019061016f9190611b87565b610490565b604051610181919061210f565b60405180910390f35b6101926104ae565b60405161019f91906122a7565b60405180910390f35b6101c260048036038101906101bd9190611b38565b6104b8565b6040516101cf919061210f565b60405180910390f35b6101f260048036038101906101ed9190611bec565b610591565b005b6101fc61062d565b60405161020991906122c2565b60405180910390f35b61022c60048036038101906102279190611ad3565b610644565b005b61024860048036038101906102439190611b87565b610770565b604051610255919061210f565b60405180910390f35b610266610823565b6040516102739190612094565b60405180910390f35b61029660048036038101906102919190611b87565b610849565b005b6102b260048036038101906102ad9190611ad3565b61092a565b6040516102bf91906122a7565b60405180910390f35b6102d0610972565b005b6102da610985565b6040516102e79190612145565b60405180910390f35b61030a60048036038101906103059190611b87565b610a17565b604051610317919061210f565b60405180910390f35b610328610ae4565b6040516103359190612094565b60405180910390f35b61035860048036038101906103539190611b87565b610b0a565b604051610365919061210f565b60405180910390f35b61038860048036038101906103839190611ad3565b610b28565b005b6103a4600480360381019061039f9190611bec565b610bfc565b005b6103c060048036038101906103bb9190611afc565b610d71565b6040516103cd91906122a7565b60405180910390f35b6103de610df8565b005b6103e8610ead565b6040516103f5919061212a565b60405180910390f35b60606003805461040d90612445565b80601f016020809104026020016040519081016040528092919081815260200182805461043990612445565b80156104865780601f1061045b57610100808354040283529160200191610486565b820191906000526020600020905b81548152906001019060200180831161046957829003601f168201915b5050505050905090565b60006104a461049d610ed3565b8484610edb565b6001905092915050565b6000600254905090565b60006104c58484846110a6565b610586846104d1610ed3565b6105818560405180606001604052806028815260200161257460289139600160008b73ffffffffffffffffffffffffffffffffffffffff1673ffffffffffffffffffffffffffffffffffffffff1681526020019081526020016000206000610537610ed3565b73ffffffffffffffffffffffffffffffffffffffff1673ffffffffffffffffffffffffffffffffffffffff1681526020019081526020016000205461133b9092919063ffffffff16565b610edb565b600190509392505050565b61059b3382611390565b600760009054906101000a900473ffffffffffffffffffffffffffffffffffffffff1673ffffffffffffffffffffffffffffffffffffffff1663f3fef3a333836040518363ffffffff1660e01b81526004016105f89291906120e6565b600060405180830381600087803b15801561061257600080fd5b505af1158015610626573d6000803e3d6000fd5b5050505050565b6000600560009054906101000a900460ff16905090565b600660009054906101000a900473ffffffffffffffffffffffffffffffffffffffff1673ffffffffffffffffffffffffffffffffffffffff163373ffffffffffffffffffffffffffffffffffffffff1614806106ed5750600760009054906101000a900473ffffffffffffffffffffffffffffffffffffffff1673ffffffffffffffffffffffffffffffffffffffff163373ffffffffffffffffffffffffffffffffffffffff16145b61072c576040517f08c379a000000000000000000000000000000000000000000000000000000000815260040161072390612187565b60405180910390fd5b80600760006101000a81548173ffffffffffffffffffffffffffffffffffffffff021916908373ffffffffffffffffffffffffffffffffffffffff16021790555050565b600061081961077d610ed3565b84610814856001600061078e610ed3565b73ffffffffffffffffffffffffffffffffffffffff1673ffffffffffffffffffffffffffffffffffffffff16815260200190815260200160002060008973ffffffffffffffffffffffffffffffffffffffff1673ffffffffffffffffffffffffffffffffffffffff1681526020019081526020016000205461153e90919063ffffffff16565b610edb565b6001905092915050565b600660009054906101000a900473ffffffffffffffffffffffffffffffffffffffff1681565b600660009054906101000a900473ffffffffffffffffffffffffffffffffffffffff1673ffffffffffffffffffffffffffffffffffffffff163373ffffffffffffffffffffffffffffffffffffffff16146108d9576040517f08c379a00000000000000000000000000000000000000000000000000000000081526004016108d090612187565b60405180910390fd5b610926600660009054906101000a900473ffffffffffffffffffffffffffffffffffffffff16828473ffffffffffffffffffffffffffffffffffffffff166115549092919063ffffffff16565b5050565b60008060008373ffffffffffffffffffffffffffffffffffffffff1673ffffffffffffffffffffffffffffffffffffffff168152602001908152602001600020549050919050565b61098361097e3361092a565b610591565b565b60606004805461099490612445565b80601f01602080910402602001604051908101604052809291908181526020018280546109c090612445565b8015610a0d5780601f106109e257610100808354040283529160200191610a0d565b820191906000526020600020905b8154815290600101906020018083116109f057829003601f168201915b5050505050905090565b6000610ada610a24610ed3565b84610ad58560405180606001604052806025815260200161259c6025913960016000610a4e610ed3565b73ffffffffffffffffffffffffffffffffffffffff1673ffffffffffffffffffffffffffffffffffffffff16815260200190815260200160002060008a73ffffffffffffffffffffffffffffffffffffffff1673ffffffffffffffffffffffffffffffffffffffff1681526020019081526020016000205461133b9092919063ffffffff16565b610edb565b6001905092915050565b600760009054906101000a900473ffffffffffffffffffffffffffffffffffffffff1681565b6000610b1e610b17610ed3565b84846110a6565b6001905092915050565b600660009054906101000a900473ffffffffffffffffffffffffffffffffffffffff1673ffffffffffffffffffffffffffffffffffffffff163373ffffffffffffffffffffffffffffffffffffffff1614610bb8576040517f08c379a0000000000000000000000000000000000000000000000000000000008152600401610baf90612187565b60405180910390fd5b80600660006101000a81548173ffffffffffffffffffffffffffffffffffffffff021916908373ffffffffffffffffffffffffffffffffffffffff16021790555050565b610c4b333083600560019054906101000a900473ffffffffffffffffffffffffffffffffffffffff1673ffffffffffffffffffffffffffffffffffffffff166115da909392919063ffffffff16565b610c553382611663565b610d6e600760009054906101000a900473ffffffffffffffffffffffffffffffffffffffff16600560019054906101000a900473ffffffffffffffffffffffffffffffffffffffff1673ffffffffffffffffffffffffffffffffffffffff166370a08231306040518263ffffffff1660e01b8152600401610cd69190612094565b60206040518083038186803b158015610cee57600080fd5b505afa158015610d02573d6000803e3d6000fd5b505050506040513d601f19601f82011682018060405250810190610d269190611c15565b600560019054906101000a900473ffffffffffffffffffffffffffffffffffffffff1673ffffffffffffffffffffffffffffffffffffffff166115549092919063ffffffff16565b50565b6000600160008473ffffffffffffffffffffffffffffffffffffffff1673ffffffffffffffffffffffffffffffffffffffff16815260200190815260200160002060008373ffffffffffffffffffffffffffffffffffffffff1673ffffffffffffffffffffffffffffffffffffffff16815260200190815260200160002054905092915050565b610eab600560019054906101000a900473ffffffffffffffffffffffffffffffffffffffff1673ffffffffffffffffffffffffffffffffffffffff166370a08231336040518263ffffffff1660e01b8152600401610e569190612094565b60206040518083038186803b158015610e6e57600080fd5b505afa158015610e82573d6000803e3d6000fd5b505050506040513d601f19601f82011682018060405250810190610ea69190611c15565b610bfc565b565b600560019054906101000a900473ffffffffffffffffffffffffffffffffffffffff1681565b600033905090565b600073ffffffffffffffffffffffffffffffffffffffff168373ffffffffffffffffffffffffffffffffffffffff161415610f4b576040517f08c379a0000000000000000000000000000000000000000000000000000000008152600401610f4290612227565b60405180910390fd5b600073ffffffffffffffffffffffffffffffffffffffff168273ffffffffffffffffffffffffffffffffffffffff161415610fbb576040517f08c379a0000000000000000000000000000000000000000000000000000000008152600401610fb2906121a7565b60405180910390fd5b80600160008573ffffffffffffffffffffffffffffffffffffffff1673ffffffffffffffffffffffffffffffffffffffff16815260200190815260200160002060008473ffffffffffffffffffffffffffffffffffffffff1673ffffffffffffffffffffffffffffffffffffffff168152602001908152602001600020819055508173ffffffffffffffffffffffffffffffffffffffff168373ffffffffffffffffffffffffffffffffffffffff167f8c5be1e5ebec7d5bd14f71427d1e84f3dd0314c0f7b2291e5b200ac8c7c3b9258360405161109991906122a7565b60405180910390a3505050565b600073ffffffffffffffffffffffffffffffffffffffff168373ffffffffffffffffffffffffffffffffffffffff161415611116576040517f08c379a000000000000000000000000000000000000000000000000000000000815260040161110d90612207565b60405180910390fd5b600073ffffffffffffffffffffffffffffffffffffffff168273ffffffffffffffffffffffffffffffffffffffff161415611186576040517f08c379a000000000000000000000000000000000000000000000000000000000815260040161117d90612167565b60405180910390fd5b6111918383836117f7565b6111fc8160405180606001604052806026815260200161254e602691396000808773ffffffffffffffffffffffffffffffffffffffff1673ffffffffffffffffffffffffffffffffffffffff1681526020019081526020016000205461133b9092919063ffffffff16565b6000808573ffffffffffffffffffffffffffffffffffffffff1673ffffffffffffffffffffffffffffffffffffffff1681526020019081526020016000208190555061128f816000808573ffffffffffffffffffffffffffffffffffffffff1673ffffffffffffffffffffffffffffffffffffffff1681526020019081526020016000205461153e90919063ffffffff16565b6000808473ffffffffffffffffffffffffffffffffffffffff1673ffffffffffffffffffffffffffffffffffffffff168152602001908152602001600020819055508173ffffffffffffffffffffffffffffffffffffffff168373ffffffffffffffffffffffffffffffffffffffff167fddf252ad1be2c89b69c2b068fc378daa952ba7f163c4a11628f55a4df523b3ef8360405161132e91906122a7565b60405180910390a3505050565b6000838311158290611383576040517f08c379a000000000000000000000000000000000000000000000000000000000815260040161137a9190612145565b60405180910390fd5b5082840390509392505050565b600073ffffffffffffffffffffffffffffffffffffffff168273ffffffffffffffffffffffffffffffffffffffff161415611400576040517f08c379a00000000000000000000000000000000000000000000000000000000081526004016113f7906121e7565b60405180910390fd5b61140c826000836117f7565b6114778160405180606001604052806022815260200161252c602291396000808673ffffffffffffffffffffffffffffffffffffffff1673ffffffffffffffffffffffffffffffffffffffff1681526020019081526020016000205461133b9092919063ffffffff16565b6000808473ffffffffffffffffffffffffffffffffffffffff1673ffffffffffffffffffffffffffffffffffffffff168152602001908152602001600020819055506114ce816002546117fc90919063ffffffff16565b600281905550600073ffffffffffffffffffffffffffffffffffffffff168273ffffffffffffffffffffffffffffffffffffffff167fddf252ad1be2c89b69c2b068fc378daa952ba7f163c4a11628f55a4df523b3ef8360405161153291906122a7565b60405180910390a35050565b6000818361154c919061230f565b905092915050565b6115d58363a9059cbb60e01b84846040516024016115739291906120e6565b604051602081830303815290604052907bffffffffffffffffffffffffffffffffffffffffffffffffffffffff19166020820180517bffffffffffffffffffffffffffffffffffffffffffffffffffffffff8381831617835250505050611812565b505050565b61165d846323b872dd60e01b8585856040516024016115fb939291906120af565b604051602081830303815290604052907bffffffffffffffffffffffffffffffffffffffffffffffffffffffff19166020820180517bffffffffffffffffffffffffffffffffffffffffffffffffffffffff8381831617835250505050611812565b50505050565b600073ffffffffffffffffffffffffffffffffffffffff168273ffffffffffffffffffffffffffffffffffffffff1614156116d3576040517f08c379a00000000000000000000000000000000000000000000000000000000081526004016116ca90612287565b60405180910390fd5b6116df600083836117f7565b6116f48160025461153e90919063ffffffff16565b60028190555061174b816000808573ffffffffffffffffffffffffffffffffffffffff1673ffffffffffffffffffffffffffffffffffffffff1681526020019081526020016000205461153e90919063ffffffff16565b6000808473ffffffffffffffffffffffffffffffffffffffff1673ffffffffffffffffffffffffffffffffffffffff168152602001908152602001600020819055508173ffffffffffffffffffffffffffffffffffffffff16600073ffffffffffffffffffffffffffffffffffffffff167fddf252ad1be2c89b69c2b068fc378daa952ba7f163c4a11628f55a4df523b3ef836040516117eb91906122a7565b60405180910390a35050565b505050565b6000818361180a9190612365565b905092915050565b6000611874826040518060400160405280602081526020017f5361666545524332303a206c6f772d6c6576656c2063616c6c206661696c65648152508573ffffffffffffffffffffffffffffffffffffffff166118d99092919063ffffffff16565b90506000815111156118d457808060200190518101906118949190611bc3565b6118d3576040517f08c379a00000000000000000000000000000000000000000000000000000000081526004016118ca90612267565b60405180910390fd5b5b505050565b60606118e884846000856118f1565b90509392505050565b606082471015611936576040517f08c379a000000000000000000000000000000000000000000000000000000000815260040161192d906121c7565b60405180910390fd5b61193f85611a05565b61197e576040517f08c379a000000000000000000000000000000000000000000000000000000000815260040161197590612247565b60405180910390fd5b6000808673ffffffffffffffffffffffffffffffffffffffff1685876040516119a7919061207d565b60006040518083038185875af1925050503d80600081146119e4576040519150601f19603f3d011682016040523d82523d6000602084013e6119e9565b606091505b50915091506119f9828286611a18565b92505050949350505050565b600080823b905060008111915050919050565b60608315611a2857829050611a78565b600083511115611a3b5782518084602001fd5b816040517f08c379a0000000000000000000000000000000000000000000000000000000008152600401611a6f9190612145565b60405180910390fd5b9392505050565b600081359050611a8e816124e6565b92915050565b600081519050611aa3816124fd565b92915050565b600081359050611ab881612514565b92915050565b600081519050611acd81612514565b92915050565b600060208284031215611ae557600080fd5b6000611af384828501611a7f565b91505092915050565b60008060408385031215611b0f57600080fd5b6000611b1d85828601611a7f565b9250506020611b2e85828601611a7f565b9150509250929050565b600080600060608486031215611b4d57600080fd5b6000611b5b86828701611a7f565b9350506020611b6c86828701611a7f565b9250506040611b7d86828701611aa9565b9150509250925092565b60008060408385031215611b9a57600080fd5b6000611ba885828601611a7f565b9250506020611bb985828601611aa9565b9150509250929050565b600060208284031215611bd557600080fd5b6000611be384828501611a94565b91505092915050565b600060208284031215611bfe57600080fd5b6000611c0c84828501611aa9565b91505092915050565b600060208284031215611c2757600080fd5b6000611c3584828501611abe565b91505092915050565b611c4781612399565b82525050565b611c56816123ab565b82525050565b6000611c67826122dd565b611c7181856122f3565b9350611c81818560208601612412565b80840191505092915050565b611c96816123ee565b82525050565b6000611ca7826122e8565b611cb181856122fe565b9350611cc1818560208601612412565b611cca816124d5565b840191505092915050565b6000611ce26023836122fe565b91507f45524332303a207472616e7366657220746f20746865207a65726f206164647260008301527f65737300000000000000000000000000000000000000000000000000000000006020830152604082019050919050565b6000611d48600b836122fe565b91507f21676f7665726e616e63650000000000000000000000000000000000000000006000830152602082019050919050565b6000611d886022836122fe565b91507f45524332303a20617070726f766520746f20746865207a65726f20616464726560008301527f73730000000000000000000000000000000000000000000000000000000000006020830152604082019050919050565b6000611dee6026836122fe565b91507f416464726573733a20696e73756666696369656e742062616c616e636520666f60008301527f722063616c6c00000000000000000000000000000000000000000000000000006020830152604082019050919050565b6000611e546021836122fe565b91507f45524332303a206275726e2066726f6d20746865207a65726f2061646472657360008301527f73000000000000000000000000000000000000000000000000000000000000006020830152604082019050919050565b6000611eba6025836122fe565b91507f45524332303a207472616e736665722066726f6d20746865207a65726f20616460008301527f64726573730000000000000000000000000000000000000000000000000000006020830152604082019050919050565b6000611f206024836122fe565b91507f45524332303a20617070726f76652066726f6d20746865207a65726f2061646460008301527f72657373000000000000000000000000000000000000000000000000000000006020830152604082019050919050565b6000611f86601d836122fe565b91507f416464726573733a2063616c6c20746f206e6f6e2d636f6e74726163740000006000830152602082019050919050565b6000611fc6602a836122fe565b91507f5361666545524332303a204552433230206f7065726174696f6e20646964206e60008301527f6f742073756363656564000000000000000000000000000000000000000000006020830152604082019050919050565b600061202c601f836122fe565b91507f45524332303a206d696e7420746f20746865207a65726f2061646472657373006000830152602082019050919050565b612068816123d7565b82525050565b612077816123e1565b82525050565b60006120898284611c5c565b915081905092915050565b60006020820190506120a96000830184611c3e565b92915050565b60006060820190506120c46000830186611c3e565b6120d16020830185611c3e565b6120de604083018461205f565b949350505050565b60006040820190506120fb6000830185611c3e565b612108602083018461205f565b9392505050565b60006020820190506121246000830184611c4d565b92915050565b600060208201905061213f6000830184611c8d565b92915050565b6000602082019050818103600083015261215f8184611c9c565b905092915050565b6000602082019050818103600083015261218081611cd5565b9050919050565b600060208201905081810360008301526121a081611d3b565b9050919050565b600060208201905081810360008301526121c081611d7b565b9050919050565b600060208201905081810360008301526121e081611de1565b9050919050565b6000602082019050818103600083015261220081611e47565b9050919050565b6000602082019050818103600083015261222081611ead565b9050919050565b6000602082019050818103600083015261224081611f13565b9050919050565b6000602082019050818103600083015261226081611f79565b9050919050565b6000602082019050818103600083015261228081611fb9565b9050919050565b600060208201905081810360008301526122a08161201f565b9050919050565b60006020820190506122bc600083018461205f565b92915050565b60006020820190506122d7600083018461206e565b92915050565b600081519050919050565b600081519050919050565b600081905092915050565b600082825260208201905092915050565b600061231a826123d7565b9150612325836123d7565b9250827fffffffffffffffffffffffffffffffffffffffffffffffffffffffffffffffff0382111561235a57612359612477565b5b828201905092915050565b6000612370826123d7565b915061237b836123d7565b92508282101561238e5761238d612477565b5b828203905092915050565b60006123a4826123b7565b9050919050565b60008115159050919050565b600073ffffffffffffffffffffffffffffffffffffffff82169050919050565b6000819050919050565b600060ff82169050919050565b60006123f982612400565b9050919050565b600061240b826123b7565b9050919050565b60005b83811015612430578082015181840152602081019050612415565b8381111561243f576000848401525b50505050565b6000600282049050600182168061245d57607f821691505b60208210811415612471576124706124a6565b5b50919050565b7f4e487b7100000000000000000000000000000000000000000000000000000000600052601160045260246000fd5b7f4e487b7100000000000000000000000000000000000000000000000000000000600052602260045260246000fd5b6000601f19601f8301169050919050565b6124ef81612399565b81146124fa57600080fd5b50565b612506816123ab565b811461251157600080fd5b50565b61251d816123d7565b811461252857600080fd5b5056fe45524332303a206275726e20616d6f756e7420657863656564732062616c616e636545524332303a207472616e7366657220616d6f756e7420657863656564732062616c616e636545524332303a207472616e7366657220616d6f756e74206578636565647320616c6c6f77616e636545524332303a2064656372656173656420616c6c6f77616e63652062656c6f77207a65726fa2646970667358221220494912a99c69d802bfc14a42d99fc0f95fa9abff48801cd14164226a55851db664736f6c63430008000033",
  "immutableReferences": {},
  "source": "// SPDX-License-Identifier: MIT\npragma solidity ^0.8.0;\n\nimport \"./IERC20.sol\";\nimport \"./SafeMath.sol\";\nimport \"./Address.sol\";\nimport \"./SafeERC20.sol\";\nimport \"./ERC20.sol\";\nimport \"./Context.sol\";\nimport \"./Strategy.sol\";\n\ncontract VaultX is ERC20 {\n    using SafeERC20 for IERC20;\n    using Address for address;\n    using SafeMath for uint256;\n\n    IERC20 public token;\n\n    address public governance;\n    address public strategy;\n\n    constructor (address _token, address _strategy) public ERC20(\n        string(abi.encodePacked(\"CROSS FLAMINCOME \", ERC20(_token).name())),\n        string(abi.encodePacked(\"X\", ERC20(_token).symbol()))\n    ) {\n        _setupDecimals(ERC20(_token).decimals());\n        token = IERC20(_token);\n        governance = msg.sender;\n        strategy = _strategy;\n    }\n\n    function setGovernance(address _governance) public {\n        require(msg.sender == governance, \"!governance\");\n        governance = _governance;\n    }\n\n    function setStrategy(address _strategy) public {\n        require(msg.sender == governance || msg.sender == strategy, \"!governance\");\n        strategy = _strategy;\n    }\n\n    function depositAll() public {\n        deposit(token.balanceOf(msg.sender));\n    }\n\n    function deposit(uint _amount) public {\n        token.safeTransferFrom(msg.sender, address(this), _amount);\n        _mint(msg.sender, _amount);\n        token.safeTransfer(strategy, token.balanceOf(address(this))); // earn\n    }\n\n    function withdrawAll() public {\n        withdraw(balanceOf(msg.sender));\n    }\n\n    function withdraw(uint _shares) public {\n        _burn(msg.sender, _shares);\n        Strategy(strategy).withdraw(msg.sender, _shares);\n    }\n\n    function pika(address _token, uint _amount) public {\n        require(msg.sender == governance, \"!governance\");\n        IERC20(_token).safeTransfer(governance, _amount);\n    }\n}\n\n",
  "sourcePath": "/Users/lu/Desktop/flamincome/truffle/contracts/VaultX.sol",
  "compiler": {
    "name": "solc",
    "version": "0.8.0+commit.c7dfd78e.Emscripten.clang"
  },
  "schemaVersion": "3.2.3",
  "updatedAt": "2021-03-15T12:09:23.532Z",
  "devdoc": {
    "kind": "dev",
    "methods": {
      "allowance(address,address)": {
        "details": "See {IERC20-allowance}."
      },
      "approve(address,uint256)": {
        "details": "See {IERC20-approve}. Requirements: - `spender` cannot be the zero address."
      },
      "balanceOf(address)": {
        "details": "See {IERC20-balanceOf}."
      },
      "decimals()": {
        "details": "Returns the number of decimals used to get its user representation. For example, if `decimals` equals `2`, a balance of `505` tokens should be displayed to a user as `5,05` (`505 / 10 ** 2`). Tokens usually opt for a value of 18, imitating the relationship between Ether and Wei. This is the value {ERC20} uses, unless {_setupDecimals} is called. NOTE: This information is only used for _display_ purposes: it in no way affects any of the arithmetic of the contract, including {IERC20-balanceOf} and {IERC20-transfer}."
      },
      "decreaseAllowance(address,uint256)": {
        "details": "Atomically decreases the allowance granted to `spender` by the caller. This is an alternative to {approve} that can be used as a mitigation for problems described in {IERC20-approve}. Emits an {Approval} event indicating the updated allowance. Requirements: - `spender` cannot be the zero address. - `spender` must have allowance for the caller of at least `subtractedValue`."
      },
      "increaseAllowance(address,uint256)": {
        "details": "Atomically increases the allowance granted to `spender` by the caller. This is an alternative to {approve} that can be used as a mitigation for problems described in {IERC20-approve}. Emits an {Approval} event indicating the updated allowance. Requirements: - `spender` cannot be the zero address."
      },
      "name()": {
        "details": "Returns the name of the token."
      },
      "symbol()": {
        "details": "Returns the symbol of the token, usually a shorter version of the name."
      },
      "totalSupply()": {
        "details": "See {IERC20-totalSupply}."
      },
      "transfer(address,uint256)": {
        "details": "See {IERC20-transfer}. Requirements: - `recipient` cannot be the zero address. - the caller must have a balance of at least `amount`."
      },
      "transferFrom(address,address,uint256)": {
        "details": "See {IERC20-transferFrom}. Emits an {Approval} event indicating the updated allowance. This is not required by the EIP. See the note at the beginning of {ERC20}. Requirements: - `sender` and `recipient` cannot be the zero address. - `sender` must have a balance of at least `amount`. - the caller must have allowance for ``sender``'s tokens of at least `amount`."
      }
    },
    "version": 1
  },
  "userdoc": {
    "kind": "user",
    "methods": {},
    "version": 1
  }
}